{"contracts/CaskMarketplace.sol":{"CaskMarketplace":{"abi":[{"inputs":[{"internalType":"address","name":"_caskNFT","type":"address"},{"internalType":"address payable","name":"_platformWallet","type":"address"}],"stateMutability":"nonpayable","type":"constructor"},{"inputs":[],"name":"FailedCall","type":"error"},{"inputs":[{"internalType":"uint256","name":"balance","type":"uint256"},{"internalType":"uint256","name":"needed","type":"uint256"}],"name":"InsufficientBalance","type":"error"},{"inputs":[{"internalType":"address","name":"owner","type":"address"}],"name":"OwnableInvalidOwner","type":"error"},{"inputs":[{"internalType":"address","name":"account","type":"address"}],"name":"OwnableUnauthorizedAccount","type":"error"},{"inputs":[],"name":"ReentrancyGuardReentrantCall","type":"error"},{"inputs":[{"internalType":"address","name":"token","type":"address"}],"name":"SafeERC20FailedOperation","type":"error"},{"anonymous":false,"inputs":[{"indexed":true,"internalType":"uint256","name":"tokenId","type":"uint256"},{"indexed":true,"internalType":"address","name":"seller","type":"address"},{"indexed":false,"internalType":"uint256","name":"price","type":"uint256"},{"indexed":false,"internalType":"address","name":"paymentToken","type":"address"},{"indexed":false,"internalType":"bool","name":"isPrimarySale","type":"bool"}],"name":"Listed","type":"event"},{"anonymous":false,"inputs":[{"indexed":true,"internalType":"address","name":"previousOwner","type":"address"},{"indexed":true,"internalType":"address","name":"newOwner","type":"address"}],"name":"OwnershipTransferred","type":"event"},{"anonymous":false,"inputs":[{"indexed":true,"internalType":"address","name":"oldWallet","type":"address"},{"indexed":true,"internalType":"address","name":"newWallet","type":"address"}],"name":"PlatformWalletUpdated","type":"event"},{"anonymous":false,"inputs":[{"indexed":true,"internalType":"uint256","name":"tokenId","type":"uint256"},{"indexed":true,"internalType":"address","name":"seller","type":"address"},{"indexed":true,"internalType":"address","name":"buyer","type":"address"},{"indexed":false,"internalType":"uint256","name":"price","type":"uint256"},{"indexed":false,"internalType":"address","name":"paymentToken","type":"address"},{"indexed":false,"internalType":"uint256","name":"platformFee","type":"uint256"},{"indexed":false,"internalType":"uint256","name":"distilleryRoyalty","type":"uint256"},{"indexed":false,"internalType":"bool","name":"isPrimarySale","type":"bool"}],"name":"Sold","type":"event"},{"anonymous":false,"inputs":[{"indexed":true,"internalType":"address","name":"token","type":"address"},{"indexed":false,"internalType":"bool","name":"approved","type":"bool"}],"name":"TokenApproved","type":"event"},{"anonymous":false,"inputs":[{"indexed":true,"internalType":"uint256","name":"tokenId","type":"uint256"},{"indexed":true,"internalType":"address","name":"seller","type":"address"}],"name":"Unlisted","type":"event"},{"inputs":[],"name":"BASIS_POINTS","outputs":[{"internalType":"uint256","name":"","type":"uint256"}],"stateMutability":"view","type":"function"},{"inputs":[],"name":"DISTILLERY_ROYALTY_BP","outputs":[{"internalType":"uint256","name":"","type":"uint256"}],"stateMutability":"view","type":"function"},{"inputs":[],"name":"PLATFORM_FEE_BP","outputs":[{"internalType":"uint256","name":"","type":"uint256"}],"stateMutability":"view","type":"function"},{"inputs":[{"internalType":"uint256","name":"","type":"uint256"}],"name":"approvedTokenList","outputs":[{"internalType":"address","name":"","type":"address"}],"stateMutability":"view","type":"function"},{"inputs":[{"internalType":"address","name":"","type":"address"}],"name":"approvedTokens","outputs":[{"internalType":"bool","name":"","type":"bool"}],"stateMutability":"view","type":"function"},{"inputs":[{"internalType":"uint256","name":"price","type":"uint256"},{"internalType":"bool","name":"isPrimarySale","type":"bool"}],"name":"calculateFees","outputs":[{"internalType":"uint256","name":"platformFee","type":"uint256"},{"internalType":"uint256","name":"distilleryRoyalty","type":"uint256"},{"internalType":"uint256","name":"sellerAmount","type":"uint256"}],"stateMutability":"pure","type":"function"},{"inputs":[],"name":"caskNFT","outputs":[{"internalType":"contract CaskNFT","name":"","type":"address"}],"stateMutability":"view","type":"function"},{"inputs":[],"name":"getApprovedTokens","outputs":[{"internalType":"address[]","name":"","type":"address[]"}],"stateMutability":"view","type":"function"},{"inputs":[{"internalType":"uint256","name":"tokenId","type":"uint256"}],"name":"getListing","outputs":[{"components":[{"internalType":"address","name":"seller","type":"address"},{"internalType":"uint256","name":"price","type":"uint256"},{"internalType":"address","name":"paymentToken","type":"address"},{"internalType":"bool","name":"active","type":"bool"},{"internalType":"bool","name":"isPrimarySale","type":"bool"}],"internalType":"struct CaskMarketplace.Listing","name":"","type":"tuple"}],"stateMutability":"view","type":"function"},{"inputs":[{"internalType":"uint256","name":"index","type":"uint256"}],"name":"getSale","outputs":[{"components":[{"internalType":"uint256","name":"tokenId","type":"uint256"},{"internalType":"address","name":"seller","type":"address"},{"internalType":"address","name":"buyer","type":"address"},{"internalType":"uint256","name":"price","type":"uint256"},{"internalType":"address","name":"paymentToken","type":"address"},{"internalType":"uint256","name":"timestamp","type":"uint256"},{"internalType":"bool","name":"isPrimarySale","type":"bool"}],"internalType":"struct CaskMarketplace.Sale","name":"","type":"tuple"}],"stateMutability":"view","type":"function"},{"inputs":[],"name":"getSalesCount","outputs":[{"internalType":"uint256","name":"","type":"uint256"}],"stateMutability":"view","type":"function"},{"inputs":[{"internalType":"uint256","name":"tokenId","type":"uint256"},{"internalType":"uint256","name":"price","type":"uint256"},{"internalType":"address","name":"paymentToken","type":"address"},{"internalType":"bool","name":"isPrimarySale","type":"bool"}],"name":"listCask","outputs":[],"stateMutability":"nonpayable","type":"function"},{"inputs":[{"internalType":"uint256","name":"","type":"uint256"}],"name":"listings","outputs":[{"internalType":"address","name":"seller","type":"address"},{"internalType":"uint256","name":"price","type":"uint256"},{"internalType":"address","name":"paymentToken","type":"address"},{"internalType":"bool","name":"active","type":"bool"},{"internalType":"bool","name":"isPrimarySale","type":"bool"}],"stateMutability":"view","type":"function"},{"inputs":[],"name":"owner","outputs":[{"internalType":"address","name":"","type":"address"}],"stateMutability":"view","type":"function"},{"inputs":[],"name":"platformWallet","outputs":[{"internalType":"address payable","name":"","type":"address"}],"stateMutability":"view","type":"function"},{"inputs":[{"internalType":"uint256","name":"tokenId","type":"uint256"}],"name":"purchaseCaskWithToken","outputs":[],"stateMutability":"nonpayable","type":"function"},{"inputs":[],"name":"renounceOwnership","outputs":[],"stateMutability":"nonpayable","type":"function"},{"inputs":[{"internalType":"uint256","name":"","type":"uint256"}],"name":"salesHistory","outputs":[{"internalType":"uint256","name":"tokenId","type":"uint256"},{"internalType":"address","name":"seller","type":"address"},{"internalType":"address","name":"buyer","type":"address"},{"internalType":"uint256","name":"price","type":"uint256"},{"internalType":"address","name":"paymentToken","type":"address"},{"internalType":"uint256","name":"timestamp","type":"uint256"},{"internalType":"bool","name":"isPrimarySale","type":"bool"}],"stateMutability":"view","type":"function"},{"inputs":[{"internalType":"address","name":"token","type":"address"},{"internalType":"bool","name":"approved","type":"bool"}],"name":"setApprovedToken","outputs":[],"stateMutability":"nonpayable","type":"function"},{"inputs":[{"internalType":"address","name":"newOwner","type":"address"}],"name":"transferOwnership","outputs":[],"stateMutability":"nonpayable","type":"function"},{"inputs":[{"internalType":"uint256","name":"tokenId","type":"uint256"}],"name":"unlistCask","outputs":[],"stateMutability":"nonpayable","type":"function"},{"inputs":[{"internalType":"address payable","name":"_platformWallet","type":"address"}],"name":"updatePlatformWallet","outputs":[],"stateMutability":"nonpayable","type":"function"}],"evm":{"bytecode":{"linkReferences":{},"object":"6080346101c657601f611a1d38819003918201601f19168301916001600160401b038311848410176101ca5780849260409485528339810103126101c65780516001600160a01b03811691908290036101c657602001516001600160a01b03811691908290036101c65760017f9b779b17422d0df92223018b32b4d1fa46e071723d6817e2486d003becc55f005533156101b3575f8054336001600160a01b03198216811783556040519290916001600160a01b0316907f8be0079c531659141344cd1fd0a4f28419497f9722a3daafe3b4186f6b6457e09080a38115610167575081156101165760018060a01b0319600154161760015560018060a01b0319600254161760025560405161183e90816101df8239f35b60405162461bcd60e51b8152602060048201526024808201527f4d61726b6574706c6163653a20496e76616c696420706c6174666f726d2077616044820152631b1b195d60e21b6064820152608490fd5b62461bcd60e51b815260206004820152602160248201527f4d61726b6574706c6163653a20496e76616c6964204e465420636f6e747261636044820152601d60fa1b6064820152608490fd5b631e4fbdf760e01b5f525f60045260245ffd5b5f80fd5b634e487b7160e01b5f52604160045260245ffdfe60806040526004361015610011575f80fd5b5f5f3560e01c806213363c1461146a578063107a274a146113a0578063152792cd14610e135780631ff79d5814610a7d57806343ee58bf146108e357806346955585146108215780636afc0c5f146107595780636d1ea3fa1461071a578063715018a6146106c05780637e6a34001461054657806384adb20e1461051d5780638da5cb5b146104f657806391cec69a146104d95780639776f4a514610495578063ada4ef30146103d3578063d8f6d5961461027e578063dd8027db14610260578063de74e57b146101f6578063de7adf6e146101d9578063e1f1c4a7146101bc578063f2fde38b146101365763fa2af9da1461010b575f80fd5b346101335780600319360112610133576002546040516001600160a01b039091168152602090f35b80fd5b50346101335760203660031901126101335761015061152b565b6101586116d2565b6001600160a01b031680156101a85781546001600160a01b03198116821783556001600160a01b03167f8be0079c531659141344cd1fd0a4f28419497f9722a3daafe3b4186f6b6457e08380a380f35b631e4fbdf760e01b82526004829052602482fd5b503461013357806003193601126101335760206040516127108152f35b503461013357806003193601126101335760206040516103528152f35b503461013357602036600319011261013357604060a091600435815260056020522060ff600180841b038254169160026001820154910154906040519384526020840152600180851b03811660408401528181851c161515606084015260a81c1615156080820152f35b50346101335780600319360112610133576020600654604051908152f35b5034610133576020366003190112610133576004359060c06040516102a281611598565b8281528260208201528260408201528260608201528260808201528260a0820152015260065481101561038e576102da60e0916114fb565b506040516102e781611598565b815480825260018301546001600160a01b0390811660208085019182526002860154831660408087019182526003880154606080890191825260048a015487166080808b0191825260058c015460a0808d019182526006909d015460ff16151560c09c8d0190815286519b8c5298518a16978b0197909752945188169389019390935290519087015251909316928401929092529051938201939093529151151590820152f35b60405162461bcd60e51b815260206004820152601a60248201527f4d61726b6574706c6163653a20496e76616c696420696e6465780000000000006044820152606490fd5b5034610133576020366003190112610133576004356001600160a01b03811690819003610491576104026116d2565b801561044c57600280546001600160a01b0319811683179091556001600160a01b03167ff84f6b525c89a18c80bbbc0c62a7eb5390956d6b8432ab067b49963a98f8c38f8380a380f35b60405162461bcd60e51b815260206004820152601b60248201527f4d61726b6574706c6163653a20496e76616c69642077616c6c657400000000006044820152606490fd5b5080fd5b503461013357602036600319011261013357600435906004548210156101335760206104c083611550565b905460405160039290921b1c6001600160a01b03168152f35b5034610133578060031936011261013357602060405161012c8152f35b5034610133578060031936011261013357546040516001600160a01b039091168152602090f35b50346101335780600319360112610133576001546040516001600160a01b039091168152602090f35b50346101335760403660031901126101335761056061152b565b610568611541565b906105716116d2565b6001600160a01b0316908115610670578080610659575b6105dd575b60207f54aee4f020b814c26f556399a354577e068193a82445e919505b00b9848512a591838552600382526105d181604087209060ff801983541691151516179055565b6040519015158152a280f35b600454600160401b811015610645577f54aee4f020b814c26f556399a354577e068193a82445e919505b00b9848512a59161062082600160209401600455611550565b81546001600160a01b0360039290921b91821b19169086901b179055915061058d9050565b634e487b7160e01b84526041600452602484fd5b50818352600360205260ff60408420541615610588565b60405162461bcd60e51b815260206004820152602260248201527f4d61726b6574706c6163653a20496e76616c696420746f6b656e206164647265604482015261737360f01b6064820152608490fd5b50346101335780600319360112610133576106d96116d2565b80546001600160a01b03198116825581906001600160a01b03167f8be0079c531659141344cd1fd0a4f28419497f9722a3daafe3b4186f6b6457e08280a380f35b50346101335760203660031901126101335760209060ff906040906001600160a01b0361074561152b565b168152600384522054166040519015158152f35b503461013357806003193601126101335760405180602060045491828152018091600485527f8a35acfbc15ff81a39ae7d344fd709f28e8600b4aa8c65c6b64bfe7fe36bd19b90855b81811061080257505050826107b89103836115b4565b604051928392602084019060208552518091526040840192915b8181106107e0575050500390f35b82516001600160a01b03168452859450602093840193909201916001016107d2565b82546001600160a01b03168452602090930192600192830192016107a2565b5034610133576040366003190112610133576004359061083f611541565b906103528302831590848104610352148217156108cf57612710900492156108845750916108708260609492611641565b905b60405192835260208301526040820152f35b9061012c84029184830461012c1417156108bb57506108b56060936108b0612710859404938492611641565b611641565b90610872565b634e487b7160e01b81526011600452602490fd5b634e487b7160e01b83526011600452602483fd5b50346101335760203660031901126101335760043561090061164e565b80825260056020526040822061096560026040519261091e84611568565b60018060a01b03815416845260018101546020850152015460018060a01b038116604084015260ff808260a01c1615159182606086015260a81c16151560808401526115d6565b516001600160a01b03163303610a385760015482906001600160a01b0316803b15610491576040516323b872dd60e01b8152306004820152336024820152604481018490529082908290606490829084905af18015610a2d57610a18575b5081905260056020525f600260408420828155826001820155015533907f398bd90ce129393b9155d48dccffb325e671f45c4250de457462a019268ff1f08380a360015f5160206117e95f395f51905f525580f35b81610a22916115b4565b61049157815f6109c3565b6040513d84823e3d90fd5b60405162461bcd60e51b815260206004820152601760248201527f4d61726b6574706c6163653a204e6f742073656c6c65720000000000000000006044820152606490fd5b5034610133576080366003190112610133576024356004356044356001600160a01b03811690819003610e0f5760643590811515809203610c7e57610ac061164e565b6001546040516331a9108f60e11b8152600481018590526001600160a01b0390911690602081602481855afa908115610e04578791610dd5575b50336001600160a01b0390911603610d90578415610d3657838652600560205260ff600260408820015460a01c16610cf15781158015610cdb575b15610c82578086913b15610491576040516323b872dd60e01b8152336004820152306024820152604481018690529082908290606490829084905af18015610a2d57610c69575b5050604051610b8a81611568565b338082526020808301878152604080850186815260016060808801828152608089018b81528c8f5260058852858f2099518a546001600160a01b0319166001600160a01b03918216178b559651938a019390935592516002989098018054935192516001600160b01b0319909416989095169790971790151560a01b60ff60a01b161790151560a81b60ff60a81b161790915580519788529087019390935291850192909252927fe56550ed7ecb62ec019bbfbec456ca916f072757f87381fa6a70e6b4e4b43eb49190a360015f5160206117e95f395f51905f525580f35b81610c73916115b4565b610c7e57845f610b7c565b8480fd5b60405162461bcd60e51b815260206004820152602b60248201527f4d61726b6574706c6163653a20546f6b656e206e6f7420617070726f7665642060448201526a199bdc881c185e5b595b9d60aa1b6064820152608490fd5b50818652600360205260ff604087205416610b35565b60405162461bcd60e51b815260206004820152601b60248201527f4d61726b6574706c6163653a20416c7265616479206c697374656400000000006044820152606490fd5b60405162461bcd60e51b815260206004820152602c60248201527f4d61726b6574706c6163653a205072696365206d75737420626520677265617460448201526b6572207468616e207a65726f60a01b6064820152608490fd5b60405162461bcd60e51b815260206004820152601c60248201527f4d61726b6574706c6163653a204e6f7420746f6b656e206f776e6572000000006044820152606490fd5b610df7915060203d602011610dfd575b610def81836115b4565b810190611622565b5f610afa565b503d610de5565b6040513d89823e3d90fd5b8380fd5b50346112cb5760203660031901126112cb57600435610e3061164e565b805f52600560205260405f2060405191610e4983611568565b60018060a01b038254168352600260018301549260208501938452015491604084019060018060a01b0384168252610e9d60ff8560a01c16151580606088015260ff608088019660a81c16151586526115d6565b81516001600160a01b0316156113465760018060a01b038251168151604051906323b872dd60e01b5f52336004523060245260445260205f60648180865af19060015f5114821615611325575b6040525f60605215611313575051935192516001600160a01b0390931692158015918515919061035280880290888204148417156112ff576127109004915f93855f146112cf5750610f3c8389611641565b905b6001546001600160a01b0316803b156112cb576040516323b872dd60e01b815230600482015233602482015260448101899052905f908290606490829084905af180156112c0576112ab575b5082516001600160a01b031691826111e157600254919250610fc091610fba9086906001600160a01b0316611770565b88611770565b806111d8575b61114e575b8051604051906001600160a01b0316610fe382611598565b86825260208201908882526040830190338252606084018b81526080850191825260a085019242845260c08601948a8652600654600160401b8110156111395780600161103392016006556114fb565b97909761112457518755516001870180546001600160a01b039283166001600160a01b0319918216179091559151600288018054918316918416919091179055915160038701559151600486018054919092169216919091179055516005830155516006909101805460ff191691151560ff1691909117905584885260056020525f600260408a20828155826001820155015560018060a01b0390511660405196875260208701526040860152606085015260808401527fb499f4171c02553edc45c3da47300879ef3ac0440c7f6c893a3a8445cf65e7f560a03394a460015f5160206117e95f395f51905f525580f35b50634e487b7160e01b8f5260048f905260248ffd5b50634e487b7160e01b8f52604160045260248ffd5b600154604051630c7e612960e01b81526004810187905290602090829060249082906001600160a01b03165afa9081156111cd576111a99185918b916111ae575b506001600160a01b03166111a4811515611686565b611770565b610fcb565b6111c7915060203d602011610dfd57610def81836115b4565b5f61118f565b6040513d8b823e3d90fd5b50821515610fc6565b60025461120591906111fe9087906001600160a01b0316866116f8565b89846116f8565b806112a2575b611216575b50610fcb565b600154604051630c7e612960e01b81526004810188905290602090829060249082906001600160a01b03165afa8015611297576112709286928c92611276575b5061126b6001600160a01b0383161515611686565b6116f8565b5f611210565b61129091925060203d602011610dfd57610def81836115b4565b905f611256565b6040513d8c823e3d90fd5b5083151561120b565b6112b8919a505f906115b4565b5f985f610f8a565b6040513d5f823e3d90fd5b5f80fd5b90935061012c88029088820461012c1417156112ff576127109004926112f9846108b0858b611641565b90610f3e565b634e487b7160e01b5f52601160045260245ffd5b635274afe760e01b5f5260045260245ffd5b90600181151661133d57823b15153d15161690610eea565b503d5f823e3d90fd5b60405162461bcd60e51b815260206004820152602c60248201527f4d61726b6574706c6163653a204c697374696e67207265717569726573206e6160448201526b1d1a5d99481c185e5b595b9d60a21b6064820152608490fd5b346112cb5760203660031901126112cb575f60806040516113c081611568565b82815282602082015282604082015282606082015201526004355f52600560205260a060405f20604051906113f482611568565b600180841b03815416918281526002600183015492602083019384520154916040820190600180871b038416825260ff6080606085019482878a1c1615158652019460a81c1615158452604051948552516020850152600180861b03905116604084015251151560608301525115156080820152f35b346112cb5760203660031901126112cb576004356006548110156112cb5761149360e0916114fb565b5080549060018060a01b036001820154169060018060a01b03600282015416600382015460018060a01b036004840154169160ff600660058601549501541694604051968752602087015260408601526060850152608084015260a0830152151560c0820152f35b6006548110156115175760065f52600760205f20910201905f90565b634e487b7160e01b5f52603260045260245ffd5b600435906001600160a01b03821682036112cb57565b6024359081151582036112cb57565b6004548110156115175760045f5260205f2001905f90565b60a0810190811067ffffffffffffffff82111761158457604052565b634e487b7160e01b5f52604160045260245ffd5b60e0810190811067ffffffffffffffff82111761158457604052565b90601f8019910116810190811067ffffffffffffffff82111761158457604052565b156115dd57565b60405162461bcd60e51b815260206004820152601760248201527f4d61726b6574706c6163653a204e6f74206c69737465640000000000000000006044820152606490fd5b908160209103126112cb57516001600160a01b03811681036112cb5790565b919082039182116112ff57565b60025f5160206117e95f395f51905f5254146116775760025f5160206117e95f395f51905f5255565b633ee5aeb560e01b5f5260045ffd5b1561168d57565b60405162461bcd60e51b815260206004820152601f60248201527f4d61726b6574706c6163653a20496e76616c69642064697374696c6c657279006044820152606490fd5b5f546001600160a01b031633036116e557565b63118cdaa760e01b5f523360045260245ffd5b916040519163a9059cbb60e01b5f5260018060a01b031660045260245260205f60448180865af19060015f5114821615611758575b604052156117385750565b635274afe760e01b5f9081526001600160a01b0391909116600452602490fd5b90600181151661133d57823b15153d1516169061172d565b8147106117d157604051602081019080821067ffffffffffffffff831117611584575f9384938480949381946040525260018060a01b03165af1156117b157565b3d156117c2576040513d5f823e3d90fd5b63d6bda27560e01b5f5260045ffd5b504763cf47918160e01b5f5260045260245260445ffdfe9b779b17422d0df92223018b32b4d1fa46e071723d6817e2486d003becc55f00a26469706673582212207edf4b6c955afc47e19784016ab5d67d87c49117d47767bb0109d554a2d18a2164736f6c634300081b0033","opcodes":"PUSH1 0x80 CALLVALUE PUSH2 0x1C6 JUMPI PUSH1 0x1F PUSH2 0x1A1D CODESIZE DUP2 SWAP1 SUB SWAP2 DUP3 ADD PUSH1 0x1F NOT AND DUP4 ADD SWAP2 PUSH1 0x1 PUSH1 0x1 PUSH1 0x40 SHL SUB DUP4 GT DUP5 DUP5 LT OR PUSH2 0x1CA JUMPI DUP1 DUP5 SWAP3 PUSH1 0x40 SWAP5 DUP6 MSTORE DUP4 CODECOPY DUP2 ADD SUB SLT PUSH2 0x1C6 JUMPI DUP1 MLOAD PUSH1 0x1 PUSH1 0x1 PUSH1 0xA0 SHL SUB DUP2 AND SWAP2 SWAP1 DUP3 SWAP1 SUB PUSH2 0x1C6 JUMPI PUSH1 0x20 ADD MLOAD PUSH1 0x1 PUSH1 0x1 PUSH1 0xA0 SHL SUB DUP2 AND SWAP2 SWAP1 DUP3 SWAP1 SUB PUSH2 0x1C6 JUMPI PUSH1 0x1 PUSH32 0x9B779B17422D0DF92223018B32B4D1FA46E071723D6817E2486D003BECC55F00 SSTORE CALLER ISZERO PUSH2 0x1B3 JUMPI PUSH0 DUP1 SLOAD CALLER PUSH1 0x1 PUSH1 0x1 PUSH1 0xA0 SHL SUB NOT DUP3 AND DUP2 OR DUP4 SSTORE PUSH1 0x40 MLOAD SWAP3 SWAP1 SWAP2 PUSH1 0x1 PUSH1 0x1 PUSH1 0xA0 SHL SUB AND SWAP1 PUSH32 0x8BE0079C531659141344CD1FD0A4F28419497F9722A3DAAFE3B4186F6B6457E0 SWAP1 DUP1 LOG3 DUP2 ISZERO PUSH2 0x167 JUMPI POP DUP2 ISZERO PUSH2 0x116 JUMPI PUSH1 0x1 DUP1 PUSH1 0xA0 SHL SUB NOT PUSH1 0x1 SLOAD AND OR PUSH1 0x1 SSTORE PUSH1 0x1 DUP1 PUSH1 0xA0 SHL SUB NOT PUSH1 0x2 SLOAD AND OR PUSH1 0x2 SSTORE PUSH1 0x40 MLOAD PUSH2 0x183E SWAP1 DUP2 PUSH2 0x1DF DUP3 CODECOPY RETURN JUMPDEST PUSH1 0x40 MLOAD PUSH3 0x461BCD PUSH1 0xE5 SHL DUP2 MSTORE PUSH1 0x20 PUSH1 0x4 DUP3 ADD MSTORE PUSH1 0x24 DUP1 DUP3 ADD MSTORE PUSH32 0x4D61726B6574706C6163653A20496E76616C696420706C6174666F726D207761 PUSH1 0x44 DUP3 ADD MSTORE PUSH4 0x1B1B195D PUSH1 0xE2 SHL PUSH1 0x64 DUP3 ADD MSTORE PUSH1 0x84 SWAP1 REVERT JUMPDEST PUSH3 0x461BCD PUSH1 0xE5 SHL DUP2 MSTORE PUSH1 0x20 PUSH1 0x4 DUP3 ADD MSTORE PUSH1 0x21 PUSH1 0x24 DUP3 ADD MSTORE PUSH32 0x4D61726B6574706C6163653A20496E76616C6964204E465420636F6E74726163 PUSH1 0x44 DUP3 ADD MSTORE PUSH1 0x1D PUSH1 0xFA SHL PUSH1 0x64 DUP3 ADD MSTORE PUSH1 0x84 SWAP1 REVERT JUMPDEST PUSH4 0x1E4FBDF7 PUSH1 0xE0 SHL PUSH0 MSTORE PUSH0 PUSH1 0x4 MSTORE PUSH1 0x24 PUSH0 REVERT JUMPDEST PUSH0 DUP1 REVERT JUMPDEST PUSH4 0x4E487B71 PUSH1 0xE0 SHL PUSH0 MSTORE PUSH1 0x41 PUSH1 0x4 MSTORE PUSH1 0x24 PUSH0 REVERT INVALID PUSH1 0x80 PUSH1 0x40 MSTORE PUSH1 0x4 CALLDATASIZE LT ISZERO PUSH2 0x11 JUMPI PUSH0 DUP1 REVERT JUMPDEST PUSH0 PUSH0 CALLDATALOAD PUSH1 0xE0 SHR DUP1 PUSH3 0x13363C EQ PUSH2 0x146A JUMPI DUP1 PUSH4 0x107A274A EQ PUSH2 0x13A0 JUMPI DUP1 PUSH4 0x152792CD EQ PUSH2 0xE13 JUMPI DUP1 PUSH4 0x1FF79D58 EQ PUSH2 0xA7D JUMPI DUP1 PUSH4 0x43EE58BF EQ PUSH2 0x8E3 JUMPI DUP1 PUSH4 0x46955585 EQ PUSH2 0x821 JUMPI DUP1 PUSH4 0x6AFC0C5F EQ PUSH2 0x759 JUMPI DUP1 PUSH4 0x6D1EA3FA EQ PUSH2 0x71A JUMPI DUP1 PUSH4 0x715018A6 EQ PUSH2 0x6C0 JUMPI DUP1 PUSH4 0x7E6A3400 EQ PUSH2 0x546 JUMPI DUP1 PUSH4 0x84ADB20E EQ PUSH2 0x51D JUMPI DUP1 PUSH4 0x8DA5CB5B EQ PUSH2 0x4F6 JUMPI DUP1 PUSH4 0x91CEC69A EQ PUSH2 0x4D9 JUMPI DUP1 PUSH4 0x9776F4A5 EQ PUSH2 0x495 JUMPI DUP1 PUSH4 0xADA4EF30 EQ PUSH2 0x3D3 JUMPI DUP1 PUSH4 0xD8F6D596 EQ PUSH2 0x27E JUMPI DUP1 PUSH4 0xDD8027DB EQ PUSH2 0x260 JUMPI DUP1 PUSH4 0xDE74E57B EQ PUSH2 0x1F6 JUMPI DUP1 PUSH4 0xDE7ADF6E EQ PUSH2 0x1D9 JUMPI DUP1 PUSH4 0xE1F1C4A7 EQ PUSH2 0x1BC JUMPI DUP1 PUSH4 0xF2FDE38B EQ PUSH2 0x136 JUMPI PUSH4 0xFA2AF9DA EQ PUSH2 0x10B JUMPI PUSH0 DUP1 REVERT JUMPDEST CALLVALUE PUSH2 0x133 JUMPI DUP1 PUSH1 0x3 NOT CALLDATASIZE ADD SLT PUSH2 0x133 JUMPI PUSH1 0x2 SLOAD PUSH1 0x40 MLOAD PUSH1 0x1 PUSH1 0x1 PUSH1 0xA0 SHL SUB SWAP1 SWAP2 AND DUP2 MSTORE PUSH1 0x20 SWAP1 RETURN JUMPDEST DUP1 REVERT JUMPDEST POP CALLVALUE PUSH2 0x133 JUMPI PUSH1 0x20 CALLDATASIZE PUSH1 0x3 NOT ADD SLT PUSH2 0x133 JUMPI PUSH2 0x150 PUSH2 0x152B JUMP JUMPDEST PUSH2 0x158 PUSH2 0x16D2 JUMP JUMPDEST PUSH1 0x1 PUSH1 0x1 PUSH1 0xA0 SHL SUB AND DUP1 ISZERO PUSH2 0x1A8 JUMPI DUP2 SLOAD PUSH1 0x1 PUSH1 0x1 PUSH1 0xA0 SHL SUB NOT DUP2 AND DUP3 OR DUP4 SSTORE PUSH1 0x1 PUSH1 0x1 PUSH1 0xA0 SHL SUB AND PUSH32 0x8BE0079C531659141344CD1FD0A4F28419497F9722A3DAAFE3B4186F6B6457E0 DUP4 DUP1 LOG3 DUP1 RETURN JUMPDEST PUSH4 0x1E4FBDF7 PUSH1 0xE0 SHL DUP3 MSTORE PUSH1 0x4 DUP3 SWAP1 MSTORE PUSH1 0x24 DUP3 REVERT JUMPDEST POP CALLVALUE PUSH2 0x133 JUMPI DUP1 PUSH1 0x3 NOT CALLDATASIZE ADD SLT PUSH2 0x133 JUMPI PUSH1 0x20 PUSH1 0x40 MLOAD PUSH2 0x2710 DUP2 MSTORE RETURN JUMPDEST POP CALLVALUE PUSH2 0x133 JUMPI DUP1 PUSH1 0x3 NOT CALLDATASIZE ADD SLT PUSH2 0x133 JUMPI PUSH1 0x20 PUSH1 0x40 MLOAD PUSH2 0x352 DUP2 MSTORE RETURN JUMPDEST POP CALLVALUE PUSH2 0x133 JUMPI PUSH1 0x20 CALLDATASIZE PUSH1 0x3 NOT ADD SLT PUSH2 0x133 JUMPI PUSH1 0x40 PUSH1 0xA0 SWAP2 PUSH1 0x4 CALLDATALOAD DUP2 MSTORE PUSH1 0x5 PUSH1 0x20 MSTORE KECCAK256 PUSH1 0xFF PUSH1 0x1 DUP1 DUP5 SHL SUB DUP3 SLOAD AND SWAP2 PUSH1 0x2 PUSH1 0x1 DUP3 ADD SLOAD SWAP2 ADD SLOAD SWAP1 PUSH1 0x40 MLOAD SWAP4 DUP5 MSTORE PUSH1 0x20 DUP5 ADD MSTORE PUSH1 0x1 DUP1 DUP6 SHL SUB DUP2 AND PUSH1 0x40 DUP5 ADD MSTORE DUP2 DUP2 DUP6 SHR AND ISZERO ISZERO PUSH1 0x60 DUP5 ADD MSTORE PUSH1 0xA8 SHR AND ISZERO ISZERO PUSH1 0x80 DUP3 ADD MSTORE RETURN JUMPDEST POP CALLVALUE PUSH2 0x133 JUMPI DUP1 PUSH1 0x3 NOT CALLDATASIZE ADD SLT PUSH2 0x133 JUMPI PUSH1 0x20 PUSH1 0x6 SLOAD PUSH1 0x40 MLOAD SWAP1 DUP2 MSTORE RETURN JUMPDEST POP CALLVALUE PUSH2 0x133 JUMPI PUSH1 0x20 CALLDATASIZE PUSH1 0x3 NOT ADD SLT PUSH2 0x133 JUMPI PUSH1 0x4 CALLDATALOAD SWAP1 PUSH1 0xC0 PUSH1 0x40 MLOAD PUSH2 0x2A2 DUP2 PUSH2 0x1598 JUMP JUMPDEST DUP3 DUP2 MSTORE DUP3 PUSH1 0x20 DUP3 ADD MSTORE DUP3 PUSH1 0x40 DUP3 ADD MSTORE DUP3 PUSH1 0x60 DUP3 ADD MSTORE DUP3 PUSH1 0x80 DUP3 ADD MSTORE DUP3 PUSH1 0xA0 DUP3 ADD MSTORE ADD MSTORE PUSH1 0x6 SLOAD DUP2 LT ISZERO PUSH2 0x38E JUMPI PUSH2 0x2DA PUSH1 0xE0 SWAP2 PUSH2 0x14FB JUMP JUMPDEST POP PUSH1 0x40 MLOAD PUSH2 0x2E7 DUP2 PUSH2 0x1598 JUMP JUMPDEST DUP2 SLOAD DUP1 DUP3 MSTORE PUSH1 0x1 DUP4 ADD SLOAD PUSH1 0x1 PUSH1 0x1 PUSH1 0xA0 SHL SUB SWAP1 DUP2 AND PUSH1 0x20 DUP1 DUP6 ADD SWAP2 DUP3 MSTORE PUSH1 0x2 DUP7 ADD SLOAD DUP4 AND PUSH1 0x40 DUP1 DUP8 ADD SWAP2 DUP3 MSTORE PUSH1 0x3 DUP9 ADD SLOAD PUSH1 0x60 DUP1 DUP10 ADD SWAP2 DUP3 MSTORE PUSH1 0x4 DUP11 ADD SLOAD DUP8 AND PUSH1 0x80 DUP1 DUP12 ADD SWAP2 DUP3 MSTORE PUSH1 0x5 DUP13 ADD SLOAD PUSH1 0xA0 DUP1 DUP14 ADD SWAP2 DUP3 MSTORE PUSH1 0x6 SWAP1 SWAP14 ADD SLOAD PUSH1 0xFF AND ISZERO ISZERO PUSH1 0xC0 SWAP13 DUP14 ADD SWAP1 DUP2 MSTORE DUP7 MLOAD SWAP12 DUP13 MSTORE SWAP9 MLOAD DUP11 AND SWAP8 DUP12 ADD SWAP8 SWAP1 SWAP8 MSTORE SWAP5 MLOAD DUP9 AND SWAP4 DUP10 ADD SWAP4 SWAP1 SWAP4 MSTORE SWAP1 MLOAD SWAP1 DUP8 ADD MSTORE MLOAD SWAP1 SWAP4 AND SWAP3 DUP5 ADD SWAP3 SWAP1 SWAP3 MSTORE SWAP1 MLOAD SWAP4 DUP3 ADD SWAP4 SWAP1 SWAP4 MSTORE SWAP2 MLOAD ISZERO ISZERO SWAP1 DUP3 ADD MSTORE RETURN JUMPDEST PUSH1 0x40 MLOAD PUSH3 0x461BCD PUSH1 0xE5 SHL DUP2 MSTORE PUSH1 0x20 PUSH1 0x4 DUP3 ADD MSTORE PUSH1 0x1A PUSH1 0x24 DUP3 ADD MSTORE PUSH32 0x4D61726B6574706C6163653A20496E76616C696420696E646578000000000000 PUSH1 0x44 DUP3 ADD MSTORE PUSH1 0x64 SWAP1 REVERT JUMPDEST POP CALLVALUE PUSH2 0x133 JUMPI PUSH1 0x20 CALLDATASIZE PUSH1 0x3 NOT ADD SLT PUSH2 0x133 JUMPI PUSH1 0x4 CALLDATALOAD PUSH1 0x1 PUSH1 0x1 PUSH1 0xA0 SHL SUB DUP2 AND SWAP1 DUP2 SWAP1 SUB PUSH2 0x491 JUMPI PUSH2 0x402 PUSH2 0x16D2 JUMP JUMPDEST DUP1 ISZERO PUSH2 0x44C JUMPI PUSH1 0x2 DUP1 SLOAD PUSH1 0x1 PUSH1 0x1 PUSH1 0xA0 SHL SUB NOT DUP2 AND DUP4 OR SWAP1 SWAP2 SSTORE PUSH1 0x1 PUSH1 0x1 PUSH1 0xA0 SHL SUB AND PUSH32 0xF84F6B525C89A18C80BBBC0C62A7EB5390956D6B8432AB067B49963A98F8C38F DUP4 DUP1 LOG3 DUP1 RETURN JUMPDEST PUSH1 0x40 MLOAD PUSH3 0x461BCD PUSH1 0xE5 SHL DUP2 MSTORE PUSH1 0x20 PUSH1 0x4 DUP3 ADD MSTORE PUSH1 0x1B PUSH1 0x24 DUP3 ADD MSTORE PUSH32 0x4D61726B6574706C6163653A20496E76616C69642077616C6C65740000000000 PUSH1 0x44 DUP3 ADD MSTORE PUSH1 0x64 SWAP1 REVERT JUMPDEST POP DUP1 REVERT JUMPDEST POP CALLVALUE PUSH2 0x133 JUMPI PUSH1 0x20 CALLDATASIZE PUSH1 0x3 NOT ADD SLT PUSH2 0x133 JUMPI PUSH1 0x4 CALLDATALOAD SWAP1 PUSH1 0x4 SLOAD DUP3 LT ISZERO PUSH2 0x133 JUMPI PUSH1 0x20 PUSH2 0x4C0 DUP4 PUSH2 0x1550 JUMP JUMPDEST SWAP1 SLOAD PUSH1 0x40 MLOAD PUSH1 0x3 SWAP3 SWAP1 SWAP3 SHL SHR PUSH1 0x1 PUSH1 0x1 PUSH1 0xA0 SHL SUB AND DUP2 MSTORE RETURN JUMPDEST POP CALLVALUE PUSH2 0x133 JUMPI DUP1 PUSH1 0x3 NOT CALLDATASIZE ADD SLT PUSH2 0x133 JUMPI PUSH1 0x20 PUSH1 0x40 MLOAD PUSH2 0x12C DUP2 MSTORE RETURN JUMPDEST POP CALLVALUE PUSH2 0x133 JUMPI DUP1 PUSH1 0x3 NOT CALLDATASIZE ADD SLT PUSH2 0x133 JUMPI SLOAD PUSH1 0x40 MLOAD PUSH1 0x1 PUSH1 0x1 PUSH1 0xA0 SHL SUB SWAP1 SWAP2 AND DUP2 MSTORE PUSH1 0x20 SWAP1 RETURN JUMPDEST POP CALLVALUE PUSH2 0x133 JUMPI DUP1 PUSH1 0x3 NOT CALLDATASIZE ADD SLT PUSH2 0x133 JUMPI PUSH1 0x1 SLOAD PUSH1 0x40 MLOAD PUSH1 0x1 PUSH1 0x1 PUSH1 0xA0 SHL SUB SWAP1 SWAP2 AND DUP2 MSTORE PUSH1 0x20 SWAP1 RETURN JUMPDEST POP CALLVALUE PUSH2 0x133 JUMPI PUSH1 0x40 CALLDATASIZE PUSH1 0x3 NOT ADD SLT PUSH2 0x133 JUMPI PUSH2 0x560 PUSH2 0x152B JUMP JUMPDEST PUSH2 0x568 PUSH2 0x1541 JUMP JUMPDEST SWAP1 PUSH2 0x571 PUSH2 0x16D2 JUMP JUMPDEST PUSH1 0x1 PUSH1 0x1 PUSH1 0xA0 SHL SUB AND SWAP1 DUP2 ISZERO PUSH2 0x670 JUMPI DUP1 DUP1 PUSH2 0x659 JUMPI JUMPDEST PUSH2 0x5DD JUMPI JUMPDEST PUSH1 0x20 PUSH32 0x54AEE4F020B814C26F556399A354577E068193A82445E919505B00B9848512A5 SWAP2 DUP4 DUP6 MSTORE PUSH1 0x3 DUP3 MSTORE PUSH2 0x5D1 DUP2 PUSH1 0x40 DUP8 KECCAK256 SWAP1 PUSH1 0xFF DUP1 NOT DUP4 SLOAD AND SWAP2 ISZERO ISZERO AND OR SWAP1 SSTORE JUMP JUMPDEST PUSH1 0x40 MLOAD SWAP1 ISZERO ISZERO DUP2 MSTORE LOG2 DUP1 RETURN JUMPDEST PUSH1 0x4 SLOAD PUSH1 0x1 PUSH1 0x40 SHL DUP2 LT ISZERO PUSH2 0x645 JUMPI PUSH32 0x54AEE4F020B814C26F556399A354577E068193A82445E919505B00B9848512A5 SWAP2 PUSH2 0x620 DUP3 PUSH1 0x1 PUSH1 0x20 SWAP5 ADD PUSH1 0x4 SSTORE PUSH2 0x1550 JUMP JUMPDEST DUP2 SLOAD PUSH1 0x1 PUSH1 0x1 PUSH1 0xA0 SHL SUB PUSH1 0x3 SWAP3 SWAP1 SWAP3 SHL SWAP2 DUP3 SHL NOT AND SWAP1 DUP7 SWAP1 SHL OR SWAP1 SSTORE SWAP2 POP PUSH2 0x58D SWAP1 POP JUMP JUMPDEST PUSH4 0x4E487B71 PUSH1 0xE0 SHL DUP5 MSTORE PUSH1 0x41 PUSH1 0x4 MSTORE PUSH1 0x24 DUP5 REVERT JUMPDEST POP DUP2 DUP4 MSTORE PUSH1 0x3 PUSH1 0x20 MSTORE PUSH1 0xFF PUSH1 0x40 DUP5 KECCAK256 SLOAD AND ISZERO PUSH2 0x588 JUMP JUMPDEST PUSH1 0x40 MLOAD PUSH3 0x461BCD PUSH1 0xE5 SHL DUP2 MSTORE PUSH1 0x20 PUSH1 0x4 DUP3 ADD MSTORE PUSH1 0x22 PUSH1 0x24 DUP3 ADD MSTORE PUSH32 0x4D61726B6574706C6163653A20496E76616C696420746F6B656E206164647265 PUSH1 0x44 DUP3 ADD MSTORE PUSH2 0x7373 PUSH1 0xF0 SHL PUSH1 0x64 DUP3 ADD MSTORE PUSH1 0x84 SWAP1 REVERT JUMPDEST POP CALLVALUE PUSH2 0x133 JUMPI DUP1 PUSH1 0x3 NOT CALLDATASIZE ADD SLT PUSH2 0x133 JUMPI PUSH2 0x6D9 PUSH2 0x16D2 JUMP JUMPDEST DUP1 SLOAD PUSH1 0x1 PUSH1 0x1 PUSH1 0xA0 SHL SUB NOT DUP2 AND DUP3 SSTORE DUP2 SWAP1 PUSH1 0x1 PUSH1 0x1 PUSH1 0xA0 SHL SUB AND PUSH32 0x8BE0079C531659141344CD1FD0A4F28419497F9722A3DAAFE3B4186F6B6457E0 DUP3 DUP1 LOG3 DUP1 RETURN JUMPDEST POP CALLVALUE PUSH2 0x133 JUMPI PUSH1 0x20 CALLDATASIZE PUSH1 0x3 NOT ADD SLT PUSH2 0x133 JUMPI PUSH1 0x20 SWAP1 PUSH1 0xFF SWAP1 PUSH1 0x40 SWAP1 PUSH1 0x1 PUSH1 0x1 PUSH1 0xA0 SHL SUB PUSH2 0x745 PUSH2 0x152B JUMP JUMPDEST AND DUP2 MSTORE PUSH1 0x3 DUP5 MSTORE KECCAK256 SLOAD AND PUSH1 0x40 MLOAD SWAP1 ISZERO ISZERO DUP2 MSTORE RETURN JUMPDEST POP CALLVALUE PUSH2 0x133 JUMPI DUP1 PUSH1 0x3 NOT CALLDATASIZE ADD SLT PUSH2 0x133 JUMPI PUSH1 0x40 MLOAD DUP1 PUSH1 0x20 PUSH1 0x4 SLOAD SWAP2 DUP3 DUP2 MSTORE ADD DUP1 SWAP2 PUSH1 0x4 DUP6 MSTORE PUSH32 0x8A35ACFBC15FF81A39AE7D344FD709F28E8600B4AA8C65C6B64BFE7FE36BD19B SWAP1 DUP6 JUMPDEST DUP2 DUP2 LT PUSH2 0x802 JUMPI POP POP POP DUP3 PUSH2 0x7B8 SWAP2 SUB DUP4 PUSH2 0x15B4 JUMP JUMPDEST PUSH1 0x40 MLOAD SWAP3 DUP4 SWAP3 PUSH1 0x20 DUP5 ADD SWAP1 PUSH1 0x20 DUP6 MSTORE MLOAD DUP1 SWAP2 MSTORE PUSH1 0x40 DUP5 ADD SWAP3 SWAP2 JUMPDEST DUP2 DUP2 LT PUSH2 0x7E0 JUMPI POP POP POP SUB SWAP1 RETURN JUMPDEST DUP3 MLOAD PUSH1 0x1 PUSH1 0x1 PUSH1 0xA0 SHL SUB AND DUP5 MSTORE DUP6 SWAP5 POP PUSH1 0x20 SWAP4 DUP5 ADD SWAP4 SWAP1 SWAP3 ADD SWAP2 PUSH1 0x1 ADD PUSH2 0x7D2 JUMP JUMPDEST DUP3 SLOAD PUSH1 0x1 PUSH1 0x1 PUSH1 0xA0 SHL SUB AND DUP5 MSTORE PUSH1 0x20 SWAP1 SWAP4 ADD SWAP3 PUSH1 0x1 SWAP3 DUP4 ADD SWAP3 ADD PUSH2 0x7A2 JUMP JUMPDEST POP CALLVALUE PUSH2 0x133 JUMPI PUSH1 0x40 CALLDATASIZE PUSH1 0x3 NOT ADD SLT PUSH2 0x133 JUMPI PUSH1 0x4 CALLDATALOAD SWAP1 PUSH2 0x83F PUSH2 0x1541 JUMP JUMPDEST SWAP1 PUSH2 0x352 DUP4 MUL DUP4 ISZERO SWAP1 DUP5 DUP2 DIV PUSH2 0x352 EQ DUP3 OR ISZERO PUSH2 0x8CF JUMPI PUSH2 0x2710 SWAP1 DIV SWAP3 ISZERO PUSH2 0x884 JUMPI POP SWAP2 PUSH2 0x870 DUP3 PUSH1 0x60 SWAP5 SWAP3 PUSH2 0x1641 JUMP JUMPDEST SWAP1 JUMPDEST PUSH1 0x40 MLOAD SWAP3 DUP4 MSTORE PUSH1 0x20 DUP4 ADD MSTORE PUSH1 0x40 DUP3 ADD MSTORE RETURN JUMPDEST SWAP1 PUSH2 0x12C DUP5 MUL SWAP2 DUP5 DUP4 DIV PUSH2 0x12C EQ OR ISZERO PUSH2 0x8BB JUMPI POP PUSH2 0x8B5 PUSH1 0x60 SWAP4 PUSH2 0x8B0 PUSH2 0x2710 DUP6 SWAP5 DIV SWAP4 DUP5 SWAP3 PUSH2 0x1641 JUMP JUMPDEST PUSH2 0x1641 JUMP JUMPDEST SWAP1 PUSH2 0x872 JUMP JUMPDEST PUSH4 0x4E487B71 PUSH1 0xE0 SHL DUP2 MSTORE PUSH1 0x11 PUSH1 0x4 MSTORE PUSH1 0x24 SWAP1 REVERT JUMPDEST PUSH4 0x4E487B71 PUSH1 0xE0 SHL DUP4 MSTORE PUSH1 0x11 PUSH1 0x4 MSTORE PUSH1 0x24 DUP4 REVERT JUMPDEST POP CALLVALUE PUSH2 0x133 JUMPI PUSH1 0x20 CALLDATASIZE PUSH1 0x3 NOT ADD SLT PUSH2 0x133 JUMPI PUSH1 0x4 CALLDATALOAD PUSH2 0x900 PUSH2 0x164E JUMP JUMPDEST DUP1 DUP3 MSTORE PUSH1 0x5 PUSH1 0x20 MSTORE PUSH1 0x40 DUP3 KECCAK256 PUSH2 0x965 PUSH1 0x2 PUSH1 0x40 MLOAD SWAP3 PUSH2 0x91E DUP5 PUSH2 0x1568 JUMP JUMPDEST PUSH1 0x1 DUP1 PUSH1 0xA0 SHL SUB DUP2 SLOAD AND DUP5 MSTORE PUSH1 0x1 DUP2 ADD SLOAD PUSH1 0x20 DUP6 ADD MSTORE ADD SLOAD PUSH1 0x1 DUP1 PUSH1 0xA0 SHL SUB DUP2 AND PUSH1 0x40 DUP5 ADD MSTORE PUSH1 0xFF DUP1 DUP3 PUSH1 0xA0 SHR AND ISZERO ISZERO SWAP2 DUP3 PUSH1 0x60 DUP7 ADD MSTORE PUSH1 0xA8 SHR AND ISZERO ISZERO PUSH1 0x80 DUP5 ADD MSTORE PUSH2 0x15D6 JUMP JUMPDEST MLOAD PUSH1 0x1 PUSH1 0x1 PUSH1 0xA0 SHL SUB AND CALLER SUB PUSH2 0xA38 JUMPI PUSH1 0x1 SLOAD DUP3 SWAP1 PUSH1 0x1 PUSH1 0x1 PUSH1 0xA0 SHL SUB AND DUP1 EXTCODESIZE ISZERO PUSH2 0x491 JUMPI PUSH1 0x40 MLOAD PUSH4 0x23B872DD PUSH1 0xE0 SHL DUP2 MSTORE ADDRESS PUSH1 0x4 DUP3 ADD MSTORE CALLER PUSH1 0x24 DUP3 ADD MSTORE PUSH1 0x44 DUP2 ADD DUP5 SWAP1 MSTORE SWAP1 DUP3 SWAP1 DUP3 SWAP1 PUSH1 0x64 SWAP1 DUP3 SWAP1 DUP5 SWAP1 GAS CALL DUP1 ISZERO PUSH2 0xA2D JUMPI PUSH2 0xA18 JUMPI JUMPDEST POP DUP2 SWAP1 MSTORE PUSH1 0x5 PUSH1 0x20 MSTORE PUSH0 PUSH1 0x2 PUSH1 0x40 DUP5 KECCAK256 DUP3 DUP2 SSTORE DUP3 PUSH1 0x1 DUP3 ADD SSTORE ADD SSTORE CALLER SWAP1 PUSH32 0x398BD90CE129393B9155D48DCCFFB325E671F45C4250DE457462A019268FF1F0 DUP4 DUP1 LOG3 PUSH1 0x1 PUSH0 MLOAD PUSH1 0x20 PUSH2 0x17E9 PUSH0 CODECOPY PUSH0 MLOAD SWAP1 PUSH0 MSTORE SSTORE DUP1 RETURN JUMPDEST DUP2 PUSH2 0xA22 SWAP2 PUSH2 0x15B4 JUMP JUMPDEST PUSH2 0x491 JUMPI DUP2 PUSH0 PUSH2 0x9C3 JUMP JUMPDEST PUSH1 0x40 MLOAD RETURNDATASIZE DUP5 DUP3 RETURNDATACOPY RETURNDATASIZE SWAP1 REVERT JUMPDEST PUSH1 0x40 MLOAD PUSH3 0x461BCD PUSH1 0xE5 SHL DUP2 MSTORE PUSH1 0x20 PUSH1 0x4 DUP3 ADD MSTORE PUSH1 0x17 PUSH1 0x24 DUP3 ADD MSTORE PUSH32 0x4D61726B6574706C6163653A204E6F742073656C6C6572000000000000000000 PUSH1 0x44 DUP3 ADD MSTORE PUSH1 0x64 SWAP1 REVERT JUMPDEST POP CALLVALUE PUSH2 0x133 JUMPI PUSH1 0x80 CALLDATASIZE PUSH1 0x3 NOT ADD SLT PUSH2 0x133 JUMPI PUSH1 0x24 CALLDATALOAD PUSH1 0x4 CALLDATALOAD PUSH1 0x44 CALLDATALOAD PUSH1 0x1 PUSH1 0x1 PUSH1 0xA0 SHL SUB DUP2 AND SWAP1 DUP2 SWAP1 SUB PUSH2 0xE0F JUMPI PUSH1 0x64 CALLDATALOAD SWAP1 DUP2 ISZERO ISZERO DUP1 SWAP3 SUB PUSH2 0xC7E JUMPI PUSH2 0xAC0 PUSH2 0x164E JUMP JUMPDEST PUSH1 0x1 SLOAD PUSH1 0x40 MLOAD PUSH4 0x31A9108F PUSH1 0xE1 SHL DUP2 MSTORE PUSH1 0x4 DUP2 ADD DUP6 SWAP1 MSTORE PUSH1 0x1 PUSH1 0x1 PUSH1 0xA0 SHL SUB SWAP1 SWAP2 AND SWAP1 PUSH1 0x20 DUP2 PUSH1 0x24 DUP2 DUP6 GAS STATICCALL SWAP1 DUP2 ISZERO PUSH2 0xE04 JUMPI DUP8 SWAP2 PUSH2 0xDD5 JUMPI JUMPDEST POP CALLER PUSH1 0x1 PUSH1 0x1 PUSH1 0xA0 SHL SUB SWAP1 SWAP2 AND SUB PUSH2 0xD90 JUMPI DUP5 ISZERO PUSH2 0xD36 JUMPI DUP4 DUP7 MSTORE PUSH1 0x5 PUSH1 0x20 MSTORE PUSH1 0xFF PUSH1 0x2 PUSH1 0x40 DUP9 KECCAK256 ADD SLOAD PUSH1 0xA0 SHR AND PUSH2 0xCF1 JUMPI DUP2 ISZERO DUP1 ISZERO PUSH2 0xCDB JUMPI JUMPDEST ISZERO PUSH2 0xC82 JUMPI DUP1 DUP7 SWAP2 EXTCODESIZE ISZERO PUSH2 0x491 JUMPI PUSH1 0x40 MLOAD PUSH4 0x23B872DD PUSH1 0xE0 SHL DUP2 MSTORE CALLER PUSH1 0x4 DUP3 ADD MSTORE ADDRESS PUSH1 0x24 DUP3 ADD MSTORE PUSH1 0x44 DUP2 ADD DUP7 SWAP1 MSTORE SWAP1 DUP3 SWAP1 DUP3 SWAP1 PUSH1 0x64 SWAP1 DUP3 SWAP1 DUP5 SWAP1 GAS CALL DUP1 ISZERO PUSH2 0xA2D JUMPI PUSH2 0xC69 JUMPI JUMPDEST POP POP PUSH1 0x40 MLOAD PUSH2 0xB8A DUP2 PUSH2 0x1568 JUMP JUMPDEST CALLER DUP1 DUP3 MSTORE PUSH1 0x20 DUP1 DUP4 ADD DUP8 DUP2 MSTORE PUSH1 0x40 DUP1 DUP6 ADD DUP7 DUP2 MSTORE PUSH1 0x1 PUSH1 0x60 DUP1 DUP9 ADD DUP3 DUP2 MSTORE PUSH1 0x80 DUP10 ADD DUP12 DUP2 MSTORE DUP13 DUP16 MSTORE PUSH1 0x5 DUP9 MSTORE DUP6 DUP16 KECCAK256 SWAP10 MLOAD DUP11 SLOAD PUSH1 0x1 PUSH1 0x1 PUSH1 0xA0 SHL SUB NOT AND PUSH1 0x1 PUSH1 0x1 PUSH1 0xA0 SHL SUB SWAP2 DUP3 AND OR DUP12 SSTORE SWAP7 MLOAD SWAP4 DUP11 ADD SWAP4 SWAP1 SWAP4 SSTORE SWAP3 MLOAD PUSH1 0x2 SWAP9 SWAP1 SWAP9 ADD DUP1 SLOAD SWAP4 MLOAD SWAP3 MLOAD PUSH1 0x1 PUSH1 0x1 PUSH1 0xB0 SHL SUB NOT SWAP1 SWAP5 AND SWAP9 SWAP1 SWAP6 AND SWAP8 SWAP1 SWAP8 OR SWAP1 ISZERO ISZERO PUSH1 0xA0 SHL PUSH1 0xFF PUSH1 0xA0 SHL AND OR SWAP1 ISZERO ISZERO PUSH1 0xA8 SHL PUSH1 0xFF PUSH1 0xA8 SHL AND OR SWAP1 SWAP2 SSTORE DUP1 MLOAD SWAP8 DUP9 MSTORE SWAP1 DUP8 ADD SWAP4 SWAP1 SWAP4 MSTORE SWAP2 DUP6 ADD SWAP3 SWAP1 SWAP3 MSTORE SWAP3 PUSH32 0xE56550ED7ECB62EC019BBFBEC456CA916F072757F87381FA6A70E6B4E4B43EB4 SWAP2 SWAP1 LOG3 PUSH1 0x1 PUSH0 MLOAD PUSH1 0x20 PUSH2 0x17E9 PUSH0 CODECOPY PUSH0 MLOAD SWAP1 PUSH0 MSTORE SSTORE DUP1 RETURN JUMPDEST DUP2 PUSH2 0xC73 SWAP2 PUSH2 0x15B4 JUMP JUMPDEST PUSH2 0xC7E JUMPI DUP5 PUSH0 PUSH2 0xB7C JUMP JUMPDEST DUP5 DUP1 REVERT JUMPDEST PUSH1 0x40 MLOAD PUSH3 0x461BCD PUSH1 0xE5 SHL DUP2 MSTORE PUSH1 0x20 PUSH1 0x4 DUP3 ADD MSTORE PUSH1 0x2B PUSH1 0x24 DUP3 ADD MSTORE PUSH32 0x4D61726B6574706C6163653A20546F6B656E206E6F7420617070726F76656420 PUSH1 0x44 DUP3 ADD MSTORE PUSH11 0x199BDC881C185E5B595B9D PUSH1 0xAA SHL PUSH1 0x64 DUP3 ADD MSTORE PUSH1 0x84 SWAP1 REVERT JUMPDEST POP DUP2 DUP7 MSTORE PUSH1 0x3 PUSH1 0x20 MSTORE PUSH1 0xFF PUSH1 0x40 DUP8 KECCAK256 SLOAD AND PUSH2 0xB35 JUMP JUMPDEST PUSH1 0x40 MLOAD PUSH3 0x461BCD PUSH1 0xE5 SHL DUP2 MSTORE PUSH1 0x20 PUSH1 0x4 DUP3 ADD MSTORE PUSH1 0x1B PUSH1 0x24 DUP3 ADD MSTORE PUSH32 0x4D61726B6574706C6163653A20416C7265616479206C69737465640000000000 PUSH1 0x44 DUP3 ADD MSTORE PUSH1 0x64 SWAP1 REVERT JUMPDEST PUSH1 0x40 MLOAD PUSH3 0x461BCD PUSH1 0xE5 SHL DUP2 MSTORE PUSH1 0x20 PUSH1 0x4 DUP3 ADD MSTORE PUSH1 0x2C PUSH1 0x24 DUP3 ADD MSTORE PUSH32 0x4D61726B6574706C6163653A205072696365206D757374206265206772656174 PUSH1 0x44 DUP3 ADD MSTORE PUSH12 0x6572207468616E207A65726F PUSH1 0xA0 SHL PUSH1 0x64 DUP3 ADD MSTORE PUSH1 0x84 SWAP1 REVERT JUMPDEST PUSH1 0x40 MLOAD PUSH3 0x461BCD PUSH1 0xE5 SHL DUP2 MSTORE PUSH1 0x20 PUSH1 0x4 DUP3 ADD MSTORE PUSH1 0x1C PUSH1 0x24 DUP3 ADD MSTORE PUSH32 0x4D61726B6574706C6163653A204E6F7420746F6B656E206F776E657200000000 PUSH1 0x44 DUP3 ADD MSTORE PUSH1 0x64 SWAP1 REVERT JUMPDEST PUSH2 0xDF7 SWAP2 POP PUSH1 0x20 RETURNDATASIZE PUSH1 0x20 GT PUSH2 0xDFD JUMPI JUMPDEST PUSH2 0xDEF DUP2 DUP4 PUSH2 0x15B4 JUMP JUMPDEST DUP2 ADD SWAP1 PUSH2 0x1622 JUMP JUMPDEST PUSH0 PUSH2 0xAFA JUMP JUMPDEST POP RETURNDATASIZE PUSH2 0xDE5 JUMP JUMPDEST PUSH1 0x40 MLOAD RETURNDATASIZE DUP10 DUP3 RETURNDATACOPY RETURNDATASIZE SWAP1 REVERT JUMPDEST DUP4 DUP1 REVERT JUMPDEST POP CALLVALUE PUSH2 0x12CB JUMPI PUSH1 0x20 CALLDATASIZE PUSH1 0x3 NOT ADD SLT PUSH2 0x12CB JUMPI PUSH1 0x4 CALLDATALOAD PUSH2 0xE30 PUSH2 0x164E JUMP JUMPDEST DUP1 PUSH0 MSTORE PUSH1 0x5 PUSH1 0x20 MSTORE PUSH1 0x40 PUSH0 KECCAK256 PUSH1 0x40 MLOAD SWAP2 PUSH2 0xE49 DUP4 PUSH2 0x1568 JUMP JUMPDEST PUSH1 0x1 DUP1 PUSH1 0xA0 SHL SUB DUP3 SLOAD AND DUP4 MSTORE PUSH1 0x2 PUSH1 0x1 DUP4 ADD SLOAD SWAP3 PUSH1 0x20 DUP6 ADD SWAP4 DUP5 MSTORE ADD SLOAD SWAP2 PUSH1 0x40 DUP5 ADD SWAP1 PUSH1 0x1 DUP1 PUSH1 0xA0 SHL SUB DUP5 AND DUP3 MSTORE PUSH2 0xE9D PUSH1 0xFF DUP6 PUSH1 0xA0 SHR AND ISZERO ISZERO DUP1 PUSH1 0x60 DUP9 ADD MSTORE PUSH1 0xFF PUSH1 0x80 DUP9 ADD SWAP7 PUSH1 0xA8 SHR AND ISZERO ISZERO DUP7 MSTORE PUSH2 0x15D6 JUMP JUMPDEST DUP2 MLOAD PUSH1 0x1 PUSH1 0x1 PUSH1 0xA0 SHL SUB AND ISZERO PUSH2 0x1346 JUMPI PUSH1 0x1 DUP1 PUSH1 0xA0 SHL SUB DUP3 MLOAD AND DUP2 MLOAD PUSH1 0x40 MLOAD SWAP1 PUSH4 0x23B872DD PUSH1 0xE0 SHL PUSH0 MSTORE CALLER PUSH1 0x4 MSTORE ADDRESS PUSH1 0x24 MSTORE PUSH1 0x44 MSTORE PUSH1 0x20 PUSH0 PUSH1 0x64 DUP2 DUP1 DUP7 GAS CALL SWAP1 PUSH1 0x1 PUSH0 MLOAD EQ DUP3 AND ISZERO PUSH2 0x1325 JUMPI JUMPDEST PUSH1 0x40 MSTORE PUSH0 PUSH1 0x60 MSTORE ISZERO PUSH2 0x1313 JUMPI POP MLOAD SWAP4 MLOAD SWAP3 MLOAD PUSH1 0x1 PUSH1 0x1 PUSH1 0xA0 SHL SUB SWAP1 SWAP4 AND SWAP3 ISZERO DUP1 ISZERO SWAP2 DUP6 ISZERO SWAP2 SWAP1 PUSH2 0x352 DUP1 DUP9 MUL SWAP1 DUP9 DUP3 DIV EQ DUP5 OR ISZERO PUSH2 0x12FF JUMPI PUSH2 0x2710 SWAP1 DIV SWAP2 PUSH0 SWAP4 DUP6 PUSH0 EQ PUSH2 0x12CF JUMPI POP PUSH2 0xF3C DUP4 DUP10 PUSH2 0x1641 JUMP JUMPDEST SWAP1 JUMPDEST PUSH1 0x1 SLOAD PUSH1 0x1 PUSH1 0x1 PUSH1 0xA0 SHL SUB AND DUP1 EXTCODESIZE ISZERO PUSH2 0x12CB JUMPI PUSH1 0x40 MLOAD PUSH4 0x23B872DD PUSH1 0xE0 SHL DUP2 MSTORE ADDRESS PUSH1 0x4 DUP3 ADD MSTORE CALLER PUSH1 0x24 DUP3 ADD MSTORE PUSH1 0x44 DUP2 ADD DUP10 SWAP1 MSTORE SWAP1 PUSH0 SWAP1 DUP3 SWAP1 PUSH1 0x64 SWAP1 DUP3 SWAP1 DUP5 SWAP1 GAS CALL DUP1 ISZERO PUSH2 0x12C0 JUMPI PUSH2 0x12AB JUMPI JUMPDEST POP DUP3 MLOAD PUSH1 0x1 PUSH1 0x1 PUSH1 0xA0 SHL SUB AND SWAP2 DUP3 PUSH2 0x11E1 JUMPI PUSH1 0x2 SLOAD SWAP2 SWAP3 POP PUSH2 0xFC0 SWAP2 PUSH2 0xFBA SWAP1 DUP7 SWAP1 PUSH1 0x1 PUSH1 0x1 PUSH1 0xA0 SHL SUB AND PUSH2 0x1770 JUMP JUMPDEST DUP9 PUSH2 0x1770 JUMP JUMPDEST DUP1 PUSH2 0x11D8 JUMPI JUMPDEST PUSH2 0x114E JUMPI JUMPDEST DUP1 MLOAD PUSH1 0x40 MLOAD SWAP1 PUSH1 0x1 PUSH1 0x1 PUSH1 0xA0 SHL SUB AND PUSH2 0xFE3 DUP3 PUSH2 0x1598 JUMP JUMPDEST DUP7 DUP3 MSTORE PUSH1 0x20 DUP3 ADD SWAP1 DUP9 DUP3 MSTORE PUSH1 0x40 DUP4 ADD SWAP1 CALLER DUP3 MSTORE PUSH1 0x60 DUP5 ADD DUP12 DUP2 MSTORE PUSH1 0x80 DUP6 ADD SWAP2 DUP3 MSTORE PUSH1 0xA0 DUP6 ADD SWAP3 TIMESTAMP DUP5 MSTORE PUSH1 0xC0 DUP7 ADD SWAP5 DUP11 DUP7 MSTORE PUSH1 0x6 SLOAD PUSH1 0x1 PUSH1 0x40 SHL DUP2 LT ISZERO PUSH2 0x1139 JUMPI DUP1 PUSH1 0x1 PUSH2 0x1033 SWAP3 ADD PUSH1 0x6 SSTORE PUSH2 0x14FB JUMP JUMPDEST SWAP8 SWAP1 SWAP8 PUSH2 0x1124 JUMPI MLOAD DUP8 SSTORE MLOAD PUSH1 0x1 DUP8 ADD DUP1 SLOAD PUSH1 0x1 PUSH1 0x1 PUSH1 0xA0 SHL SUB SWAP3 DUP4 AND PUSH1 0x1 PUSH1 0x1 PUSH1 0xA0 SHL SUB NOT SWAP2 DUP3 AND OR SWAP1 SWAP2 SSTORE SWAP2 MLOAD PUSH1 0x2 DUP9 ADD DUP1 SLOAD SWAP2 DUP4 AND SWAP2 DUP5 AND SWAP2 SWAP1 SWAP2 OR SWAP1 SSTORE SWAP2 MLOAD PUSH1 0x3 DUP8 ADD SSTORE SWAP2 MLOAD PUSH1 0x4 DUP7 ADD DUP1 SLOAD SWAP2 SWAP1 SWAP3 AND SWAP3 AND SWAP2 SWAP1 SWAP2 OR SWAP1 SSTORE MLOAD PUSH1 0x5 DUP4 ADD SSTORE MLOAD PUSH1 0x6 SWAP1 SWAP2 ADD DUP1 SLOAD PUSH1 0xFF NOT AND SWAP2 ISZERO ISZERO PUSH1 0xFF AND SWAP2 SWAP1 SWAP2 OR SWAP1 SSTORE DUP5 DUP9 MSTORE PUSH1 0x5 PUSH1 0x20 MSTORE PUSH0 PUSH1 0x2 PUSH1 0x40 DUP11 KECCAK256 DUP3 DUP2 SSTORE DUP3 PUSH1 0x1 DUP3 ADD SSTORE ADD SSTORE PUSH1 0x1 DUP1 PUSH1 0xA0 SHL SUB SWAP1 MLOAD AND PUSH1 0x40 MLOAD SWAP7 DUP8 MSTORE PUSH1 0x20 DUP8 ADD MSTORE PUSH1 0x40 DUP7 ADD MSTORE PUSH1 0x60 DUP6 ADD MSTORE PUSH1 0x80 DUP5 ADD MSTORE PUSH32 0xB499F4171C02553EDC45C3DA47300879EF3AC0440C7F6C893A3A8445CF65E7F5 PUSH1 0xA0 CALLER SWAP5 LOG4 PUSH1 0x1 PUSH0 MLOAD PUSH1 0x20 PUSH2 0x17E9 PUSH0 CODECOPY PUSH0 MLOAD SWAP1 PUSH0 MSTORE SSTORE DUP1 RETURN JUMPDEST POP PUSH4 0x4E487B71 PUSH1 0xE0 SHL DUP16 MSTORE PUSH1 0x4 DUP16 SWAP1 MSTORE PUSH1 0x24 DUP16 REVERT JUMPDEST POP PUSH4 0x4E487B71 PUSH1 0xE0 SHL DUP16 MSTORE PUSH1 0x41 PUSH1 0x4 MSTORE PUSH1 0x24 DUP16 REVERT JUMPDEST PUSH1 0x1 SLOAD PUSH1 0x40 MLOAD PUSH4 0xC7E6129 PUSH1 0xE0 SHL DUP2 MSTORE PUSH1 0x4 DUP2 ADD DUP8 SWAP1 MSTORE SWAP1 PUSH1 0x20 SWAP1 DUP3 SWAP1 PUSH1 0x24 SWAP1 DUP3 SWAP1 PUSH1 0x1 PUSH1 0x1 PUSH1 0xA0 SHL SUB AND GAS STATICCALL SWAP1 DUP2 ISZERO PUSH2 0x11CD JUMPI PUSH2 0x11A9 SWAP2 DUP6 SWAP2 DUP12 SWAP2 PUSH2 0x11AE JUMPI JUMPDEST POP PUSH1 0x1 PUSH1 0x1 PUSH1 0xA0 SHL SUB AND PUSH2 0x11A4 DUP2 ISZERO ISZERO PUSH2 0x1686 JUMP JUMPDEST PUSH2 0x1770 JUMP JUMPDEST PUSH2 0xFCB JUMP JUMPDEST PUSH2 0x11C7 SWAP2 POP PUSH1 0x20 RETURNDATASIZE PUSH1 0x20 GT PUSH2 0xDFD JUMPI PUSH2 0xDEF DUP2 DUP4 PUSH2 0x15B4 JUMP JUMPDEST PUSH0 PUSH2 0x118F JUMP JUMPDEST PUSH1 0x40 MLOAD RETURNDATASIZE DUP12 DUP3 RETURNDATACOPY RETURNDATASIZE SWAP1 REVERT JUMPDEST POP DUP3 ISZERO ISZERO PUSH2 0xFC6 JUMP JUMPDEST PUSH1 0x2 SLOAD PUSH2 0x1205 SWAP2 SWAP1 PUSH2 0x11FE SWAP1 DUP8 SWAP1 PUSH1 0x1 PUSH1 0x1 PUSH1 0xA0 SHL SUB AND DUP7 PUSH2 0x16F8 JUMP JUMPDEST DUP10 DUP5 PUSH2 0x16F8 JUMP JUMPDEST DUP1 PUSH2 0x12A2 JUMPI JUMPDEST PUSH2 0x1216 JUMPI JUMPDEST POP PUSH2 0xFCB JUMP JUMPDEST PUSH1 0x1 SLOAD PUSH1 0x40 MLOAD PUSH4 0xC7E6129 PUSH1 0xE0 SHL DUP2 MSTORE PUSH1 0x4 DUP2 ADD DUP9 SWAP1 MSTORE SWAP1 PUSH1 0x20 SWAP1 DUP3 SWAP1 PUSH1 0x24 SWAP1 DUP3 SWAP1 PUSH1 0x1 PUSH1 0x1 PUSH1 0xA0 SHL SUB AND GAS STATICCALL DUP1 ISZERO PUSH2 0x1297 JUMPI PUSH2 0x1270 SWAP3 DUP7 SWAP3 DUP13 SWAP3 PUSH2 0x1276 JUMPI JUMPDEST POP PUSH2 0x126B PUSH1 0x1 PUSH1 0x1 PUSH1 0xA0 SHL SUB DUP4 AND ISZERO ISZERO PUSH2 0x1686 JUMP JUMPDEST PUSH2 0x16F8 JUMP JUMPDEST PUSH0 PUSH2 0x1210 JUMP JUMPDEST PUSH2 0x1290 SWAP2 SWAP3 POP PUSH1 0x20 RETURNDATASIZE PUSH1 0x20 GT PUSH2 0xDFD JUMPI PUSH2 0xDEF DUP2 DUP4 PUSH2 0x15B4 JUMP JUMPDEST SWAP1 PUSH0 PUSH2 0x1256 JUMP JUMPDEST PUSH1 0x40 MLOAD RETURNDATASIZE DUP13 DUP3 RETURNDATACOPY RETURNDATASIZE SWAP1 REVERT JUMPDEST POP DUP4 ISZERO ISZERO PUSH2 0x120B JUMP JUMPDEST PUSH2 0x12B8 SWAP2 SWAP11 POP PUSH0 SWAP1 PUSH2 0x15B4 JUMP JUMPDEST PUSH0 SWAP9 PUSH0 PUSH2 0xF8A JUMP JUMPDEST PUSH1 0x40 MLOAD RETURNDATASIZE PUSH0 DUP3 RETURNDATACOPY RETURNDATASIZE SWAP1 REVERT JUMPDEST PUSH0 DUP1 REVERT JUMPDEST SWAP1 SWAP4 POP PUSH2 0x12C DUP9 MUL SWAP1 DUP9 DUP3 DIV PUSH2 0x12C EQ OR ISZERO PUSH2 0x12FF JUMPI PUSH2 0x2710 SWAP1 DIV SWAP3 PUSH2 0x12F9 DUP5 PUSH2 0x8B0 DUP6 DUP12 PUSH2 0x1641 JUMP JUMPDEST SWAP1 PUSH2 0xF3E JUMP JUMPDEST PUSH4 0x4E487B71 PUSH1 0xE0 SHL PUSH0 MSTORE PUSH1 0x11 PUSH1 0x4 MSTORE PUSH1 0x24 PUSH0 REVERT JUMPDEST PUSH4 0x5274AFE7 PUSH1 0xE0 SHL PUSH0 MSTORE PUSH1 0x4 MSTORE PUSH1 0x24 PUSH0 REVERT JUMPDEST SWAP1 PUSH1 0x1 DUP2 ISZERO AND PUSH2 0x133D JUMPI DUP3 EXTCODESIZE ISZERO ISZERO RETURNDATASIZE ISZERO AND AND SWAP1 PUSH2 0xEEA JUMP JUMPDEST POP RETURNDATASIZE PUSH0 DUP3 RETURNDATACOPY RETURNDATASIZE SWAP1 REVERT JUMPDEST PUSH1 0x40 MLOAD PUSH3 0x461BCD PUSH1 0xE5 SHL DUP2 MSTORE PUSH1 0x20 PUSH1 0x4 DUP3 ADD MSTORE PUSH1 0x2C PUSH1 0x24 DUP3 ADD MSTORE PUSH32 0x4D61726B6574706C6163653A204C697374696E67207265717569726573206E61 PUSH1 0x44 DUP3 ADD MSTORE PUSH12 0x1D1A5D99481C185E5B595B9D PUSH1 0xA2 SHL PUSH1 0x64 DUP3 ADD MSTORE PUSH1 0x84 SWAP1 REVERT JUMPDEST CALLVALUE PUSH2 0x12CB JUMPI PUSH1 0x20 CALLDATASIZE PUSH1 0x3 NOT ADD SLT PUSH2 0x12CB JUMPI PUSH0 PUSH1 0x80 PUSH1 0x40 MLOAD PUSH2 0x13C0 DUP2 PUSH2 0x1568 JUMP JUMPDEST DUP3 DUP2 MSTORE DUP3 PUSH1 0x20 DUP3 ADD MSTORE DUP3 PUSH1 0x40 DUP3 ADD MSTORE DUP3 PUSH1 0x60 DUP3 ADD MSTORE ADD MSTORE PUSH1 0x4 CALLDATALOAD PUSH0 MSTORE PUSH1 0x5 PUSH1 0x20 MSTORE PUSH1 0xA0 PUSH1 0x40 PUSH0 KECCAK256 PUSH1 0x40 MLOAD SWAP1 PUSH2 0x13F4 DUP3 PUSH2 0x1568 JUMP JUMPDEST PUSH1 0x1 DUP1 DUP5 SHL SUB DUP2 SLOAD AND SWAP2 DUP3 DUP2 MSTORE PUSH1 0x2 PUSH1 0x1 DUP4 ADD SLOAD SWAP3 PUSH1 0x20 DUP4 ADD SWAP4 DUP5 MSTORE ADD SLOAD SWAP2 PUSH1 0x40 DUP3 ADD SWAP1 PUSH1 0x1 DUP1 DUP8 SHL SUB DUP5 AND DUP3 MSTORE PUSH1 0xFF PUSH1 0x80 PUSH1 0x60 DUP6 ADD SWAP5 DUP3 DUP8 DUP11 SHR AND ISZERO ISZERO DUP7 MSTORE ADD SWAP5 PUSH1 0xA8 SHR AND ISZERO ISZERO DUP5 MSTORE PUSH1 0x40 MLOAD SWAP5 DUP6 MSTORE MLOAD PUSH1 0x20 DUP6 ADD MSTORE PUSH1 0x1 DUP1 DUP7 SHL SUB SWAP1 MLOAD AND PUSH1 0x40 DUP5 ADD MSTORE MLOAD ISZERO ISZERO PUSH1 0x60 DUP4 ADD MSTORE MLOAD ISZERO ISZERO PUSH1 0x80 DUP3 ADD MSTORE RETURN JUMPDEST CALLVALUE PUSH2 0x12CB JUMPI PUSH1 0x20 CALLDATASIZE PUSH1 0x3 NOT ADD SLT PUSH2 0x12CB JUMPI PUSH1 0x4 CALLDATALOAD PUSH1 0x6 SLOAD DUP2 LT ISZERO PUSH2 0x12CB JUMPI PUSH2 0x1493 PUSH1 0xE0 SWAP2 PUSH2 0x14FB JUMP JUMPDEST POP DUP1 SLOAD SWAP1 PUSH1 0x1 DUP1 PUSH1 0xA0 SHL SUB PUSH1 0x1 DUP3 ADD SLOAD AND SWAP1 PUSH1 0x1 DUP1 PUSH1 0xA0 SHL SUB PUSH1 0x2 DUP3 ADD SLOAD AND PUSH1 0x3 DUP3 ADD SLOAD PUSH1 0x1 DUP1 PUSH1 0xA0 SHL SUB PUSH1 0x4 DUP5 ADD SLOAD AND SWAP2 PUSH1 0xFF PUSH1 0x6 PUSH1 0x5 DUP7 ADD SLOAD SWAP6 ADD SLOAD AND SWAP5 PUSH1 0x40 MLOAD SWAP7 DUP8 MSTORE PUSH1 0x20 DUP8 ADD MSTORE PUSH1 0x40 DUP7 ADD MSTORE PUSH1 0x60 DUP6 ADD MSTORE PUSH1 0x80 DUP5 ADD MSTORE PUSH1 0xA0 DUP4 ADD MSTORE ISZERO ISZERO PUSH1 0xC0 DUP3 ADD MSTORE RETURN JUMPDEST PUSH1 0x6 SLOAD DUP2 LT ISZERO PUSH2 0x1517 JUMPI PUSH1 0x6 PUSH0 MSTORE PUSH1 0x7 PUSH1 0x20 PUSH0 KECCAK256 SWAP2 MUL ADD SWAP1 PUSH0 SWAP1 JUMP JUMPDEST PUSH4 0x4E487B71 PUSH1 0xE0 SHL PUSH0 MSTORE PUSH1 0x32 PUSH1 0x4 MSTORE PUSH1 0x24 PUSH0 REVERT JUMPDEST PUSH1 0x4 CALLDATALOAD SWAP1 PUSH1 0x1 PUSH1 0x1 PUSH1 0xA0 SHL SUB DUP3 AND DUP3 SUB PUSH2 0x12CB JUMPI JUMP JUMPDEST PUSH1 0x24 CALLDATALOAD SWAP1 DUP2 ISZERO ISZERO DUP3 SUB PUSH2 0x12CB JUMPI JUMP JUMPDEST PUSH1 0x4 SLOAD DUP2 LT ISZERO PUSH2 0x1517 JUMPI PUSH1 0x4 PUSH0 MSTORE PUSH1 0x20 PUSH0 KECCAK256 ADD SWAP1 PUSH0 SWAP1 JUMP JUMPDEST PUSH1 0xA0 DUP2 ADD SWAP1 DUP2 LT PUSH8 0xFFFFFFFFFFFFFFFF DUP3 GT OR PUSH2 0x1584 JUMPI PUSH1 0x40 MSTORE JUMP JUMPDEST PUSH4 0x4E487B71 PUSH1 0xE0 SHL PUSH0 MSTORE PUSH1 0x41 PUSH1 0x4 MSTORE PUSH1 0x24 PUSH0 REVERT JUMPDEST PUSH1 0xE0 DUP2 ADD SWAP1 DUP2 LT PUSH8 0xFFFFFFFFFFFFFFFF DUP3 GT OR PUSH2 0x1584 JUMPI PUSH1 0x40 MSTORE JUMP JUMPDEST SWAP1 PUSH1 0x1F DUP1 NOT SWAP2 ADD AND DUP2 ADD SWAP1 DUP2 LT PUSH8 0xFFFFFFFFFFFFFFFF DUP3 GT OR PUSH2 0x1584 JUMPI PUSH1 0x40 MSTORE JUMP JUMPDEST ISZERO PUSH2 0x15DD JUMPI JUMP JUMPDEST PUSH1 0x40 MLOAD PUSH3 0x461BCD PUSH1 0xE5 SHL DUP2 MSTORE PUSH1 0x20 PUSH1 0x4 DUP3 ADD MSTORE PUSH1 0x17 PUSH1 0x24 DUP3 ADD MSTORE PUSH32 0x4D61726B6574706C6163653A204E6F74206C6973746564000000000000000000 PUSH1 0x44 DUP3 ADD MSTORE PUSH1 0x64 SWAP1 REVERT JUMPDEST SWAP1 DUP2 PUSH1 0x20 SWAP2 SUB SLT PUSH2 0x12CB JUMPI MLOAD PUSH1 0x1 PUSH1 0x1 PUSH1 0xA0 SHL SUB DUP2 AND DUP2 SUB PUSH2 0x12CB JUMPI SWAP1 JUMP JUMPDEST SWAP2 SWAP1 DUP3 SUB SWAP2 DUP3 GT PUSH2 0x12FF JUMPI JUMP JUMPDEST PUSH1 0x2 PUSH0 MLOAD PUSH1 0x20 PUSH2 0x17E9 PUSH0 CODECOPY PUSH0 MLOAD SWAP1 PUSH0 MSTORE SLOAD EQ PUSH2 0x1677 JUMPI PUSH1 0x2 PUSH0 MLOAD PUSH1 0x20 PUSH2 0x17E9 PUSH0 CODECOPY PUSH0 MLOAD SWAP1 PUSH0 MSTORE SSTORE JUMP JUMPDEST PUSH4 0x3EE5AEB5 PUSH1 0xE0 SHL PUSH0 MSTORE PUSH1 0x4 PUSH0 REVERT JUMPDEST ISZERO PUSH2 0x168D JUMPI JUMP JUMPDEST PUSH1 0x40 MLOAD PUSH3 0x461BCD PUSH1 0xE5 SHL DUP2 MSTORE PUSH1 0x20 PUSH1 0x4 DUP3 ADD MSTORE PUSH1 0x1F PUSH1 0x24 DUP3 ADD MSTORE PUSH32 0x4D61726B6574706C6163653A20496E76616C69642064697374696C6C65727900 PUSH1 0x44 DUP3 ADD MSTORE PUSH1 0x64 SWAP1 REVERT JUMPDEST PUSH0 SLOAD PUSH1 0x1 PUSH1 0x1 PUSH1 0xA0 SHL SUB AND CALLER SUB PUSH2 0x16E5 JUMPI JUMP JUMPDEST PUSH4 0x118CDAA7 PUSH1 0xE0 SHL PUSH0 MSTORE CALLER PUSH1 0x4 MSTORE PUSH1 0x24 PUSH0 REVERT JUMPDEST SWAP2 PUSH1 0x40 MLOAD SWAP2 PUSH4 0xA9059CBB PUSH1 0xE0 SHL PUSH0 MSTORE PUSH1 0x1 DUP1 PUSH1 0xA0 SHL SUB AND PUSH1 0x4 MSTORE PUSH1 0x24 MSTORE PUSH1 0x20 PUSH0 PUSH1 0x44 DUP2 DUP1 DUP7 GAS CALL SWAP1 PUSH1 0x1 PUSH0 MLOAD EQ DUP3 AND ISZERO PUSH2 0x1758 JUMPI JUMPDEST PUSH1 0x40 MSTORE ISZERO PUSH2 0x1738 JUMPI POP JUMP JUMPDEST PUSH4 0x5274AFE7 PUSH1 0xE0 SHL PUSH0 SWAP1 DUP2 MSTORE PUSH1 0x1 PUSH1 0x1 PUSH1 0xA0 SHL SUB SWAP2 SWAP1 SWAP2 AND PUSH1 0x4 MSTORE PUSH1 0x24 SWAP1 REVERT JUMPDEST SWAP1 PUSH1 0x1 DUP2 ISZERO AND PUSH2 0x133D JUMPI DUP3 EXTCODESIZE ISZERO ISZERO RETURNDATASIZE ISZERO AND AND SWAP1 PUSH2 0x172D JUMP JUMPDEST DUP2 SELFBALANCE LT PUSH2 0x17D1 JUMPI PUSH1 0x40 MLOAD PUSH1 0x20 DUP2 ADD SWAP1 DUP1 DUP3 LT PUSH8 0xFFFFFFFFFFFFFFFF DUP4 GT OR PUSH2 0x1584 JUMPI PUSH0 SWAP4 DUP5 SWAP4 DUP5 DUP1 SWAP5 SWAP4 DUP2 SWAP5 PUSH1 0x40 MSTORE MSTORE PUSH1 0x1 DUP1 PUSH1 0xA0 SHL SUB AND GAS CALL ISZERO PUSH2 0x17B1 JUMPI JUMP JUMPDEST RETURNDATASIZE ISZERO PUSH2 0x17C2 JUMPI PUSH1 0x40 MLOAD RETURNDATASIZE PUSH0 DUP3 RETURNDATACOPY RETURNDATASIZE SWAP1 REVERT JUMPDEST PUSH4 0xD6BDA275 PUSH1 0xE0 SHL PUSH0 MSTORE PUSH1 0x4 PUSH0 REVERT JUMPDEST POP SELFBALANCE PUSH4 0xCF479181 PUSH1 0xE0 SHL PUSH0 MSTORE PUSH1 0x4 MSTORE PUSH1 0x24 MSTORE PUSH1 0x44 PUSH0 REVERT INVALID SWAP12 PUSH24 0x9B17422D0DF92223018B32B4D1FA46E071723D6817E2486D STOP EXTCODESIZE 0xEC 0xC5 PUSH0 STOP LOG2 PUSH5 0x6970667358 0x22 SLT KECCAK256 PUSH31 0xDF4B6C955AFC47E19784016AB5D67D87C49117D47767BB0109D554A2D18A21 PUSH5 0x736F6C6343 STOP ADDMOD SHL STOP CALLER "},"methodIdentifiers":{"BASIS_POINTS()":"e1f1c4a7","DISTILLERY_ROYALTY_BP()":"91cec69a","PLATFORM_FEE_BP()":"de7adf6e","approvedTokenList(uint256)":"9776f4a5","approvedTokens(address)":"6d1ea3fa","calculateFees(uint256,bool)":"46955585","caskNFT()":"84adb20e","getApprovedTokens()":"6afc0c5f","getListing(uint256)":"107a274a","getSale(uint256)":"d8f6d596","getSalesCount()":"dd8027db","listCask(uint256,uint256,address,bool)":"1ff79d58","listings(uint256)":"de74e57b","owner()":"8da5cb5b","platformWallet()":"fa2af9da","purchaseCaskWithToken(uint256)":"152792cd","renounceOwnership()":"715018a6","salesHistory(uint256)":"0013363c","setApprovedToken(address,bool)":"7e6a3400","transferOwnership(address)":"f2fde38b","unlistCask(uint256)":"43ee58bf","updatePlatformWallet(address)":"ada4ef30"}}}}}