{
  "_format": "hh-sol-artifact-1",
  "contractName": "CaskMarketplace",
  "sourceName": "contracts/CaskMarketplace.sol",
  "abi": [
    {
      "inputs": [
        {
          "internalType": "address",
          "name": "_caskNFT",
          "type": "address"
        },
        {
          "internalType": "address payable",
          "name": "_platformWallet",
          "type": "address"
        }
      ],
      "stateMutability": "nonpayable",
      "type": "constructor"
    },
    {
      "inputs": [],
      "name": "FailedCall",
      "type": "error"
    },
    {
      "inputs": [
        {
          "internalType": "uint256",
          "name": "balance",
          "type": "uint256"
        },
        {
          "internalType": "uint256",
          "name": "needed",
          "type": "uint256"
        }
      ],
      "name": "InsufficientBalance",
      "type": "error"
    },
    {
      "inputs": [
        {
          "internalType": "address",
          "name": "owner",
          "type": "address"
        }
      ],
      "name": "OwnableInvalidOwner",
      "type": "error"
    },
    {
      "inputs": [
        {
          "internalType": "address",
          "name": "account",
          "type": "address"
        }
      ],
      "name": "OwnableUnauthorizedAccount",
      "type": "error"
    },
    {
      "inputs": [],
      "name": "ReentrancyGuardReentrantCall",
      "type": "error"
    },
    {
      "inputs": [
        {
          "internalType": "address",
          "name": "token",
          "type": "address"
        }
      ],
      "name": "SafeERC20FailedOperation",
      "type": "error"
    },
    {
      "anonymous": false,
      "inputs": [
        {
          "indexed": true,
          "internalType": "uint256",
          "name": "tokenId",
          "type": "uint256"
        },
        {
          "indexed": true,
          "internalType": "address",
          "name": "seller",
          "type": "address"
        },
        {
          "indexed": false,
          "internalType": "uint256",
          "name": "price",
          "type": "uint256"
        },
        {
          "indexed": false,
          "internalType": "address",
          "name": "paymentToken",
          "type": "address"
        },
        {
          "indexed": false,
          "internalType": "bool",
          "name": "isPrimarySale",
          "type": "bool"
        }
      ],
      "name": "Listed",
      "type": "event"
    },
    {
      "anonymous": false,
      "inputs": [
        {
          "indexed": true,
          "internalType": "address",
          "name": "previousOwner",
          "type": "address"
        },
        {
          "indexed": true,
          "internalType": "address",
          "name": "newOwner",
          "type": "address"
        }
      ],
      "name": "OwnershipTransferred",
      "type": "event"
    },
    {
      "anonymous": false,
      "inputs": [
        {
          "indexed": true,
          "internalType": "address",
          "name": "oldWallet",
          "type": "address"
        },
        {
          "indexed": true,
          "internalType": "address",
          "name": "newWallet",
          "type": "address"
        }
      ],
      "name": "PlatformWalletUpdated",
      "type": "event"
    },
    {
      "anonymous": false,
      "inputs": [
        {
          "indexed": true,
          "internalType": "uint256",
          "name": "tokenId",
          "type": "uint256"
        },
        {
          "indexed": true,
          "internalType": "address",
          "name": "seller",
          "type": "address"
        },
        {
          "indexed": true,
          "internalType": "address",
          "name": "buyer",
          "type": "address"
        },
        {
          "indexed": false,
          "internalType": "uint256",
          "name": "price",
          "type": "uint256"
        },
        {
          "indexed": false,
          "internalType": "address",
          "name": "paymentToken",
          "type": "address"
        },
        {
          "indexed": false,
          "internalType": "uint256",
          "name": "platformFee",
          "type": "uint256"
        },
        {
          "indexed": false,
          "internalType": "uint256",
          "name": "distilleryRoyalty",
          "type": "uint256"
        },
        {
          "indexed": false,
          "internalType": "bool",
          "name": "isPrimarySale",
          "type": "bool"
        }
      ],
      "name": "Sold",
      "type": "event"
    },
    {
      "anonymous": false,
      "inputs": [
        {
          "indexed": true,
          "internalType": "address",
          "name": "token",
          "type": "address"
        },
        {
          "indexed": false,
          "internalType": "bool",
          "name": "approved",
          "type": "bool"
        }
      ],
      "name": "TokenApproved",
      "type": "event"
    },
    {
      "anonymous": false,
      "inputs": [
        {
          "indexed": true,
          "internalType": "uint256",
          "name": "tokenId",
          "type": "uint256"
        },
        {
          "indexed": true,
          "internalType": "address",
          "name": "seller",
          "type": "address"
        }
      ],
      "name": "Unlisted",
      "type": "event"
    },
    {
      "inputs": [],
      "name": "BASIS_POINTS",
      "outputs": [
        {
          "internalType": "uint256",
          "name": "",
          "type": "uint256"
        }
      ],
      "stateMutability": "view",
      "type": "function"
    },
    {
      "inputs": [],
      "name": "DISTILLERY_ROYALTY_BP",
      "outputs": [
        {
          "internalType": "uint256",
          "name": "",
          "type": "uint256"
        }
      ],
      "stateMutability": "view",
      "type": "function"
    },
    {
      "inputs": [],
      "name": "PLATFORM_FEE_BP",
      "outputs": [
        {
          "internalType": "uint256",
          "name": "",
          "type": "uint256"
        }
      ],
      "stateMutability": "view",
      "type": "function"
    },
    {
      "inputs": [
        {
          "internalType": "uint256",
          "name": "",
          "type": "uint256"
        }
      ],
      "name": "approvedTokenList",
      "outputs": [
        {
          "internalType": "address",
          "name": "",
          "type": "address"
        }
      ],
      "stateMutability": "view",
      "type": "function"
    },
    {
      "inputs": [
        {
          "internalType": "address",
          "name": "",
          "type": "address"
        }
      ],
      "name": "approvedTokens",
      "outputs": [
        {
          "internalType": "bool",
          "name": "",
          "type": "bool"
        }
      ],
      "stateMutability": "view",
      "type": "function"
    },
    {
      "inputs": [
        {
          "internalType": "uint256",
          "name": "price",
          "type": "uint256"
        },
        {
          "internalType": "bool",
          "name": "isPrimarySale",
          "type": "bool"
        }
      ],
      "name": "calculateFees",
      "outputs": [
        {
          "internalType": "uint256",
          "name": "platformFee",
          "type": "uint256"
        },
        {
          "internalType": "uint256",
          "name": "distilleryRoyalty",
          "type": "uint256"
        },
        {
          "internalType": "uint256",
          "name": "sellerAmount",
          "type": "uint256"
        }
      ],
      "stateMutability": "pure",
      "type": "function"
    },
    {
      "inputs": [],
      "name": "caskNFT",
      "outputs": [
        {
          "internalType": "contract CaskNFT",
          "name": "",
          "type": "address"
        }
      ],
      "stateMutability": "view",
      "type": "function"
    },
    {
      "inputs": [],
      "name": "getApprovedTokens",
      "outputs": [
        {
          "internalType": "address[]",
          "name": "",
          "type": "address[]"
        }
      ],
      "stateMutability": "view",
      "type": "function"
    },
    {
      "inputs": [
        {
          "internalType": "uint256",
          "name": "tokenId",
          "type": "uint256"
        }
      ],
      "name": "getListing",
      "outputs": [
        {
          "components": [
            {
              "internalType": "address",
              "name": "seller",
              "type": "address"
            },
            {
              "internalType": "uint256",
              "name": "price",
              "type": "uint256"
            },
            {
              "internalType": "address",
              "name": "paymentToken",
              "type": "address"
            },
            {
              "internalType": "bool",
              "name": "active",
              "type": "bool"
            },
            {
              "internalType": "bool",
              "name": "isPrimarySale",
              "type": "bool"
            }
          ],
          "internalType": "struct CaskMarketplace.Listing",
          "name": "",
          "type": "tuple"
        }
      ],
      "stateMutability": "view",
      "type": "function"
    },
    {
      "inputs": [
        {
          "internalType": "uint256",
          "name": "index",
          "type": "uint256"
        }
      ],
      "name": "getSale",
      "outputs": [
        {
          "components": [
            {
              "internalType": "uint256",
              "name": "tokenId",
              "type": "uint256"
            },
            {
              "internalType": "address",
              "name": "seller",
              "type": "address"
            },
            {
              "internalType": "address",
              "name": "buyer",
              "type": "address"
            },
            {
              "internalType": "uint256",
              "name": "price",
              "type": "uint256"
            },
            {
              "internalType": "address",
              "name": "paymentToken",
              "type": "address"
            },
            {
              "internalType": "uint256",
              "name": "timestamp",
              "type": "uint256"
            },
            {
              "internalType": "bool",
              "name": "isPrimarySale",
              "type": "bool"
            }
          ],
          "internalType": "struct CaskMarketplace.Sale",
          "name": "",
          "type": "tuple"
        }
      ],
      "stateMutability": "view",
      "type": "function"
    },
    {
      "inputs": [],
      "name": "getSalesCount",
      "outputs": [
        {
          "internalType": "uint256",
          "name": "",
          "type": "uint256"
        }
      ],
      "stateMutability": "view",
      "type": "function"
    },
    {
      "inputs": [
        {
          "internalType": "uint256",
          "name": "tokenId",
          "type": "uint256"
        },
        {
          "internalType": "uint256",
          "name": "price",
          "type": "uint256"
        },
        {
          "internalType": "address",
          "name": "paymentToken",
          "type": "address"
        },
        {
          "internalType": "bool",
          "name": "isPrimarySale",
          "type": "bool"
        }
      ],
      "name": "listCask",
      "outputs": [],
      "stateMutability": "nonpayable",
      "type": "function"
    },
    {
      "inputs": [
        {
          "internalType": "uint256",
          "name": "",
          "type": "uint256"
        }
      ],
      "name": "listings",
      "outputs": [
        {
          "internalType": "address",
          "name": "seller",
          "type": "address"
        },
        {
          "internalType": "uint256",
          "name": "price",
          "type": "uint256"
        },
        {
          "internalType": "address",
          "name": "paymentToken",
          "type": "address"
        },
        {
          "internalType": "bool",
          "name": "active",
          "type": "bool"
        },
        {
          "internalType": "bool",
          "name": "isPrimarySale",
          "type": "bool"
        }
      ],
      "stateMutability": "view",
      "type": "function"
    },
    {
      "inputs": [],
      "name": "owner",
      "outputs": [
        {
          "internalType": "address",
          "name": "",
          "type": "address"
        }
      ],
      "stateMutability": "view",
      "type": "function"
    },
    {
      "inputs": [],
      "name": "platformWallet",
      "outputs": [
        {
          "internalType": "address payable",
          "name": "",
          "type": "address"
        }
      ],
      "stateMutability": "view",
      "type": "function"
    },
    {
      "inputs": [
        {
          "internalType": "uint256",
          "name": "tokenId",
          "type": "uint256"
        }
      ],
      "name": "purchaseCaskWithToken",
      "outputs": [],
      "stateMutability": "nonpayable",
      "type": "function"
    },
    {
      "inputs": [],
      "name": "renounceOwnership",
      "outputs": [],
      "stateMutability": "nonpayable",
      "type": "function"
    },
    {
      "inputs": [
        {
          "internalType": "uint256",
          "name": "",
          "type": "uint256"
        }
      ],
      "name": "salesHistory",
      "outputs": [
        {
          "internalType": "uint256",
          "name": "tokenId",
          "type": "uint256"
        },
        {
          "internalType": "address",
          "name": "seller",
          "type": "address"
        },
        {
          "internalType": "address",
          "name": "buyer",
          "type": "address"
        },
        {
          "internalType": "uint256",
          "name": "price",
          "type": "uint256"
        },
        {
          "internalType": "address",
          "name": "paymentToken",
          "type": "address"
        },
        {
          "internalType": "uint256",
          "name": "timestamp",
          "type": "uint256"
        },
        {
          "internalType": "bool",
          "name": "isPrimarySale",
          "type": "bool"
        }
      ],
      "stateMutability": "view",
      "type": "function"
    },
    {
      "inputs": [
        {
          "internalType": "address",
          "name": "token",
          "type": "address"
        },
        {
          "internalType": "bool",
          "name": "approved",
          "type": "bool"
        }
      ],
      "name": "setApprovedToken",
      "outputs": [],
      "stateMutability": "nonpayable",
      "type": "function"
    },
    {
      "inputs": [
        {
          "internalType": "address",
          "name": "newOwner",
          "type": "address"
        }
      ],
      "name": "transferOwnership",
      "outputs": [],
      "stateMutability": "nonpayable",
      "type": "function"
    },
    {
      "inputs": [
        {
          "internalType": "uint256",
          "name": "tokenId",
          "type": "uint256"
        }
      ],
      "name": "unlistCask",
      "outputs": [],
      "stateMutability": "nonpayable",
      "type": "function"
    },
    {
      "inputs": [
        {
          "internalType": "address payable",
          "name": "_platformWallet",
          "type": "address"
        }
      ],
      "name": "updatePlatformWallet",
      "outputs": [],
      "stateMutability": "nonpayable",
      "type": "function"
    }
  ],
  "bytecode": "0x6080346101c657601f611a1d38819003918201601f19168301916001600160401b038311848410176101ca5780849260409485528339810103126101c65780516001600160a01b03811691908290036101c657602001516001600160a01b03811691908290036101c65760017f9b779b17422d0df92223018b32b4d1fa46e071723d6817e2486d003becc55f005533156101b3575f8054336001600160a01b03198216811783556040519290916001600160a01b0316907f8be0079c531659141344cd1fd0a4f28419497f9722a3daafe3b4186f6b6457e09080a38115610167575081156101165760018060a01b0319600154161760015560018060a01b0319600254161760025560405161183e90816101df8239f35b60405162461bcd60e51b8152602060048201526024808201527f4d61726b6574706c6163653a20496e76616c696420706c6174666f726d2077616044820152631b1b195d60e21b6064820152608490fd5b62461bcd60e51b815260206004820152602160248201527f4d61726b6574706c6163653a20496e76616c6964204e465420636f6e747261636044820152601d60fa1b6064820152608490fd5b631e4fbdf760e01b5f525f60045260245ffd5b5f80fd5b634e487b7160e01b5f52604160045260245ffdfe60806040526004361015610011575f80fd5b5f5f3560e01c806213363c1461146a578063107a274a146113a0578063152792cd14610e135780631ff79d5814610a7d57806343ee58bf146108e357806346955585146108215780636afc0c5f146107595780636d1ea3fa1461071a578063715018a6146106c05780637e6a34001461054657806384adb20e1461051d5780638da5cb5b146104f657806391cec69a146104d95780639776f4a514610495578063ada4ef30146103d3578063d8f6d5961461027e578063dd8027db14610260578063de74e57b146101f6578063de7adf6e146101d9578063e1f1c4a7146101bc578063f2fde38b146101365763fa2af9da1461010b575f80fd5b346101335780600319360112610133576002546040516001600160a01b039091168152602090f35b80fd5b50346101335760203660031901126101335761015061152b565b6101586116d2565b6001600160a01b031680156101a85781546001600160a01b03198116821783556001600160a01b03167f8be0079c531659141344cd1fd0a4f28419497f9722a3daafe3b4186f6b6457e08380a380f35b631e4fbdf760e01b82526004829052602482fd5b503461013357806003193601126101335760206040516127108152f35b503461013357806003193601126101335760206040516103528152f35b503461013357602036600319011261013357604060a091600435815260056020522060ff600180841b038254169160026001820154910154906040519384526020840152600180851b03811660408401528181851c161515606084015260a81c1615156080820152f35b50346101335780600319360112610133576020600654604051908152f35b5034610133576020366003190112610133576004359060c06040516102a281611598565b8281528260208201528260408201528260608201528260808201528260a0820152015260065481101561038e576102da60e0916114fb565b506040516102e781611598565b815480825260018301546001600160a01b0390811660208085019182526002860154831660408087019182526003880154606080890191825260048a015487166080808b0191825260058c015460a0808d019182526006909d015460ff16151560c09c8d0190815286519b8c5298518a16978b0197909752945188169389019390935290519087015251909316928401929092529051938201939093529151151590820152f35b60405162461bcd60e51b815260206004820152601a60248201527f4d61726b6574706c6163653a20496e76616c696420696e6465780000000000006044820152606490fd5b5034610133576020366003190112610133576004356001600160a01b03811690819003610491576104026116d2565b801561044c57600280546001600160a01b0319811683179091556001600160a01b03167ff84f6b525c89a18c80bbbc0c62a7eb5390956d6b8432ab067b49963a98f8c38f8380a380f35b60405162461bcd60e51b815260206004820152601b60248201527f4d61726b6574706c6163653a20496e76616c69642077616c6c657400000000006044820152606490fd5b5080fd5b503461013357602036600319011261013357600435906004548210156101335760206104c083611550565b905460405160039290921b1c6001600160a01b03168152f35b5034610133578060031936011261013357602060405161012c8152f35b5034610133578060031936011261013357546040516001600160a01b039091168152602090f35b50346101335780600319360112610133576001546040516001600160a01b039091168152602090f35b50346101335760403660031901126101335761056061152b565b610568611541565b906105716116d2565b6001600160a01b0316908115610670578080610659575b6105dd575b60207f54aee4f020b814c26f556399a354577e068193a82445e919505b00b9848512a591838552600382526105d181604087209060ff801983541691151516179055565b6040519015158152a280f35b600454600160401b811015610645577f54aee4f020b814c26f556399a354577e068193a82445e919505b00b9848512a59161062082600160209401600455611550565b81546001600160a01b0360039290921b91821b19169086901b179055915061058d9050565b634e487b7160e01b84526041600452602484fd5b50818352600360205260ff60408420541615610588565b60405162461bcd60e51b815260206004820152602260248201527f4d61726b6574706c6163653a20496e76616c696420746f6b656e206164647265604482015261737360f01b6064820152608490fd5b50346101335780600319360112610133576106d96116d2565b80546001600160a01b03198116825581906001600160a01b03167f8be0079c531659141344cd1fd0a4f28419497f9722a3daafe3b4186f6b6457e08280a380f35b50346101335760203660031901126101335760209060ff906040906001600160a01b0361074561152b565b168152600384522054166040519015158152f35b503461013357806003193601126101335760405180602060045491828152018091600485527f8a35acfbc15ff81a39ae7d344fd709f28e8600b4aa8c65c6b64bfe7fe36bd19b90855b81811061080257505050826107b89103836115b4565b604051928392602084019060208552518091526040840192915b8181106107e0575050500390f35b82516001600160a01b03168452859450602093840193909201916001016107d2565b82546001600160a01b03168452602090930192600192830192016107a2565b5034610133576040366003190112610133576004359061083f611541565b906103528302831590848104610352148217156108cf57612710900492156108845750916108708260609492611641565b905b60405192835260208301526040820152f35b9061012c84029184830461012c1417156108bb57506108b56060936108b0612710859404938492611641565b611641565b90610872565b634e487b7160e01b81526011600452602490fd5b634e487b7160e01b83526011600452602483fd5b50346101335760203660031901126101335760043561090061164e565b80825260056020526040822061096560026040519261091e84611568565b60018060a01b03815416845260018101546020850152015460018060a01b038116604084015260ff808260a01c1615159182606086015260a81c16151560808401526115d6565b516001600160a01b03163303610a385760015482906001600160a01b0316803b15610491576040516323b872dd60e01b8152306004820152336024820152604481018490529082908290606490829084905af18015610a2d57610a18575b5081905260056020525f600260408420828155826001820155015533907f398bd90ce129393b9155d48dccffb325e671f45c4250de457462a019268ff1f08380a360015f5160206117e95f395f51905f525580f35b81610a22916115b4565b61049157815f6109c3565b6040513d84823e3d90fd5b60405162461bcd60e51b815260206004820152601760248201527f4d61726b6574706c6163653a204e6f742073656c6c65720000000000000000006044820152606490fd5b5034610133576080366003190112610133576024356004356044356001600160a01b03811690819003610e0f5760643590811515809203610c7e57610ac061164e565b6001546040516331a9108f60e11b8152600481018590526001600160a01b0390911690602081602481855afa908115610e04578791610dd5575b50336001600160a01b0390911603610d90578415610d3657838652600560205260ff600260408820015460a01c16610cf15781158015610cdb575b15610c82578086913b15610491576040516323b872dd60e01b8152336004820152306024820152604481018690529082908290606490829084905af18015610a2d57610c69575b5050604051610b8a81611568565b338082526020808301878152604080850186815260016060808801828152608089018b81528c8f5260058852858f2099518a546001600160a01b0319166001600160a01b03918216178b559651938a019390935592516002989098018054935192516001600160b01b0319909416989095169790971790151560a01b60ff60a01b161790151560a81b60ff60a81b161790915580519788529087019390935291850192909252927fe56550ed7ecb62ec019bbfbec456ca916f072757f87381fa6a70e6b4e4b43eb49190a360015f5160206117e95f395f51905f525580f35b81610c73916115b4565b610c7e57845f610b7c565b8480fd5b60405162461bcd60e51b815260206004820152602b60248201527f4d61726b6574706c6163653a20546f6b656e206e6f7420617070726f7665642060448201526a199bdc881c185e5b595b9d60aa1b6064820152608490fd5b50818652600360205260ff604087205416610b35565b60405162461bcd60e51b815260206004820152601b60248201527f4d61726b6574706c6163653a20416c7265616479206c697374656400000000006044820152606490fd5b60405162461bcd60e51b815260206004820152602c60248201527f4d61726b6574706c6163653a205072696365206d75737420626520677265617460448201526b6572207468616e207a65726f60a01b6064820152608490fd5b60405162461bcd60e51b815260206004820152601c60248201527f4d61726b6574706c6163653a204e6f7420746f6b656e206f776e6572000000006044820152606490fd5b610df7915060203d602011610dfd575b610def81836115b4565b810190611622565b5f610afa565b503d610de5565b6040513d89823e3d90fd5b8380fd5b50346112cb5760203660031901126112cb57600435610e3061164e565b805f52600560205260405f2060405191610e4983611568565b60018060a01b038254168352600260018301549260208501938452015491604084019060018060a01b0384168252610e9d60ff8560a01c16151580606088015260ff608088019660a81c16151586526115d6565b81516001600160a01b0316156113465760018060a01b038251168151604051906323b872dd60e01b5f52336004523060245260445260205f60648180865af19060015f5114821615611325575b6040525f60605215611313575051935192516001600160a01b0390931692158015918515919061035280880290888204148417156112ff576127109004915f93855f146112cf5750610f3c8389611641565b905b6001546001600160a01b0316803b156112cb576040516323b872dd60e01b815230600482015233602482015260448101899052905f908290606490829084905af180156112c0576112ab575b5082516001600160a01b031691826111e157600254919250610fc091610fba9086906001600160a01b0316611770565b88611770565b806111d8575b61114e575b8051604051906001600160a01b0316610fe382611598565b86825260208201908882526040830190338252606084018b81526080850191825260a085019242845260c08601948a8652600654600160401b8110156111395780600161103392016006556114fb565b97909761112457518755516001870180546001600160a01b039283166001600160a01b0319918216179091559151600288018054918316918416919091179055915160038701559151600486018054919092169216919091179055516005830155516006909101805460ff191691151560ff1691909117905584885260056020525f600260408a20828155826001820155015560018060a01b0390511660405196875260208701526040860152606085015260808401527fb499f4171c02553edc45c3da47300879ef3ac0440c7f6c893a3a8445cf65e7f560a03394a460015f5160206117e95f395f51905f525580f35b50634e487b7160e01b8f5260048f905260248ffd5b50634e487b7160e01b8f52604160045260248ffd5b600154604051630c7e612960e01b81526004810187905290602090829060249082906001600160a01b03165afa9081156111cd576111a99185918b916111ae575b506001600160a01b03166111a4811515611686565b611770565b610fcb565b6111c7915060203d602011610dfd57610def81836115b4565b5f61118f565b6040513d8b823e3d90fd5b50821515610fc6565b60025461120591906111fe9087906001600160a01b0316866116f8565b89846116f8565b806112a2575b611216575b50610fcb565b600154604051630c7e612960e01b81526004810188905290602090829060249082906001600160a01b03165afa8015611297576112709286928c92611276575b5061126b6001600160a01b0383161515611686565b6116f8565b5f611210565b61129091925060203d602011610dfd57610def81836115b4565b905f611256565b6040513d8c823e3d90fd5b5083151561120b565b6112b8919a505f906115b4565b5f985f610f8a565b6040513d5f823e3d90fd5b5f80fd5b90935061012c88029088820461012c1417156112ff576127109004926112f9846108b0858b611641565b90610f3e565b634e487b7160e01b5f52601160045260245ffd5b635274afe760e01b5f5260045260245ffd5b90600181151661133d57823b15153d15161690610eea565b503d5f823e3d90fd5b60405162461bcd60e51b815260206004820152602c60248201527f4d61726b6574706c6163653a204c697374696e67207265717569726573206e6160448201526b1d1a5d99481c185e5b595b9d60a21b6064820152608490fd5b346112cb5760203660031901126112cb575f60806040516113c081611568565b82815282602082015282604082015282606082015201526004355f52600560205260a060405f20604051906113f482611568565b600180841b03815416918281526002600183015492602083019384520154916040820190600180871b038416825260ff6080606085019482878a1c1615158652019460a81c1615158452604051948552516020850152600180861b03905116604084015251151560608301525115156080820152f35b346112cb5760203660031901126112cb576004356006548110156112cb5761149360e0916114fb565b5080549060018060a01b036001820154169060018060a01b03600282015416600382015460018060a01b036004840154169160ff600660058601549501541694604051968752602087015260408601526060850152608084015260a0830152151560c0820152f35b6006548110156115175760065f52600760205f20910201905f90565b634e487b7160e01b5f52603260045260245ffd5b600435906001600160a01b03821682036112cb57565b6024359081151582036112cb57565b6004548110156115175760045f5260205f2001905f90565b60a0810190811067ffffffffffffffff82111761158457604052565b634e487b7160e01b5f52604160045260245ffd5b60e0810190811067ffffffffffffffff82111761158457604052565b90601f8019910116810190811067ffffffffffffffff82111761158457604052565b156115dd57565b60405162461bcd60e51b815260206004820152601760248201527f4d61726b6574706c6163653a204e6f74206c69737465640000000000000000006044820152606490fd5b908160209103126112cb57516001600160a01b03811681036112cb5790565b919082039182116112ff57565b60025f5160206117e95f395f51905f5254146116775760025f5160206117e95f395f51905f5255565b633ee5aeb560e01b5f5260045ffd5b1561168d57565b60405162461bcd60e51b815260206004820152601f60248201527f4d61726b6574706c6163653a20496e76616c69642064697374696c6c657279006044820152606490fd5b5f546001600160a01b031633036116e557565b63118cdaa760e01b5f523360045260245ffd5b916040519163a9059cbb60e01b5f5260018060a01b031660045260245260205f60448180865af19060015f5114821615611758575b604052156117385750565b635274afe760e01b5f9081526001600160a01b0391909116600452602490fd5b90600181151661133d57823b15153d1516169061172d565b8147106117d157604051602081019080821067ffffffffffffffff831117611584575f9384938480949381946040525260018060a01b03165af1156117b157565b3d156117c2576040513d5f823e3d90fd5b63d6bda27560e01b5f5260045ffd5b504763cf47918160e01b5f5260045260245260445ffdfe9b779b17422d0df92223018b32b4d1fa46e071723d6817e2486d003becc55f00a26469706673582212207edf4b6c955afc47e19784016ab5d67d87c49117d47767bb0109d554a2d18a2164736f6c634300081b0033",
  "linkReferences": {},
  "deployedLinkReferences": {}
}