{
  "_format": "hh-sol-artifact-1",
  "contractName": "CaskNFT",
  "sourceName": "contracts/CaskNFT.sol",
  "abi": [
    {
      "inputs": [],
      "stateMutability": "nonpayable",
      "type": "constructor"
    },
    {
      "inputs": [
        {
          "internalType": "address",
          "name": "sender",
          "type": "address"
        },
        {
          "internalType": "uint256",
          "name": "tokenId",
          "type": "uint256"
        },
        {
          "internalType": "address",
          "name": "owner",
          "type": "address"
        }
      ],
      "name": "ERC721IncorrectOwner",
      "type": "error"
    },
    {
      "inputs": [
        {
          "internalType": "address",
          "name": "operator",
          "type": "address"
        },
        {
          "internalType": "uint256",
          "name": "tokenId",
          "type": "uint256"
        }
      ],
      "name": "ERC721InsufficientApproval",
      "type": "error"
    },
    {
      "inputs": [
        {
          "internalType": "address",
          "name": "approver",
          "type": "address"
        }
      ],
      "name": "ERC721InvalidApprover",
      "type": "error"
    },
    {
      "inputs": [
        {
          "internalType": "address",
          "name": "operator",
          "type": "address"
        }
      ],
      "name": "ERC721InvalidOperator",
      "type": "error"
    },
    {
      "inputs": [
        {
          "internalType": "address",
          "name": "owner",
          "type": "address"
        }
      ],
      "name": "ERC721InvalidOwner",
      "type": "error"
    },
    {
      "inputs": [
        {
          "internalType": "address",
          "name": "receiver",
          "type": "address"
        }
      ],
      "name": "ERC721InvalidReceiver",
      "type": "error"
    },
    {
      "inputs": [
        {
          "internalType": "address",
          "name": "sender",
          "type": "address"
        }
      ],
      "name": "ERC721InvalidSender",
      "type": "error"
    },
    {
      "inputs": [
        {
          "internalType": "uint256",
          "name": "tokenId",
          "type": "uint256"
        }
      ],
      "name": "ERC721NonexistentToken",
      "type": "error"
    },
    {
      "inputs": [
        {
          "internalType": "address",
          "name": "owner",
          "type": "address"
        }
      ],
      "name": "OwnableInvalidOwner",
      "type": "error"
    },
    {
      "inputs": [
        {
          "internalType": "address",
          "name": "account",
          "type": "address"
        }
      ],
      "name": "OwnableUnauthorizedAccount",
      "type": "error"
    },
    {
      "anonymous": false,
      "inputs": [
        {
          "indexed": true,
          "internalType": "address",
          "name": "owner",
          "type": "address"
        },
        {
          "indexed": true,
          "internalType": "address",
          "name": "approved",
          "type": "address"
        },
        {
          "indexed": true,
          "internalType": "uint256",
          "name": "tokenId",
          "type": "uint256"
        }
      ],
      "name": "Approval",
      "type": "event"
    },
    {
      "anonymous": false,
      "inputs": [
        {
          "indexed": true,
          "internalType": "address",
          "name": "owner",
          "type": "address"
        },
        {
          "indexed": true,
          "internalType": "address",
          "name": "operator",
          "type": "address"
        },
        {
          "indexed": false,
          "internalType": "bool",
          "name": "approved",
          "type": "bool"
        }
      ],
      "name": "ApprovalForAll",
      "type": "event"
    },
    {
      "anonymous": false,
      "inputs": [
        {
          "indexed": false,
          "internalType": "uint256",
          "name": "_fromTokenId",
          "type": "uint256"
        },
        {
          "indexed": false,
          "internalType": "uint256",
          "name": "_toTokenId",
          "type": "uint256"
        }
      ],
      "name": "BatchMetadataUpdate",
      "type": "event"
    },
    {
      "anonymous": false,
      "inputs": [
        {
          "indexed": true,
          "internalType": "uint256",
          "name": "tokenId",
          "type": "uint256"
        },
        {
          "indexed": false,
          "internalType": "string",
          "name": "caskId",
          "type": "string"
        },
        {
          "indexed": true,
          "internalType": "address",
          "name": "distillery",
          "type": "address"
        },
        {
          "indexed": true,
          "internalType": "address",
          "name": "owner",
          "type": "address"
        },
        {
          "indexed": false,
          "internalType": "string",
          "name": "spiritName",
          "type": "string"
        },
        {
          "indexed": false,
          "internalType": "string",
          "name": "caskNumber",
          "type": "string"
        },
        {
          "indexed": false,
          "internalType": "uint8",
          "name": "rarityTier",
          "type": "uint8"
        }
      ],
      "name": "CaskMinted",
      "type": "event"
    },
    {
      "anonymous": false,
      "inputs": [
        {
          "indexed": true,
          "internalType": "uint256",
          "name": "tokenId",
          "type": "uint256"
        },
        {
          "indexed": true,
          "internalType": "address",
          "name": "from",
          "type": "address"
        },
        {
          "indexed": true,
          "internalType": "address",
          "name": "to",
          "type": "address"
        },
        {
          "indexed": false,
          "internalType": "uint256",
          "name": "price",
          "type": "uint256"
        }
      ],
      "name": "CaskTransferred",
      "type": "event"
    },
    {
      "anonymous": false,
      "inputs": [
        {
          "indexed": false,
          "internalType": "uint256",
          "name": "_tokenId",
          "type": "uint256"
        }
      ],
      "name": "MetadataUpdate",
      "type": "event"
    },
    {
      "anonymous": false,
      "inputs": [
        {
          "indexed": true,
          "internalType": "address",
          "name": "previousOwner",
          "type": "address"
        },
        {
          "indexed": true,
          "internalType": "address",
          "name": "newOwner",
          "type": "address"
        }
      ],
      "name": "OwnershipTransferred",
      "type": "event"
    },
    {
      "anonymous": false,
      "inputs": [
        {
          "indexed": true,
          "internalType": "address",
          "name": "from",
          "type": "address"
        },
        {
          "indexed": true,
          "internalType": "address",
          "name": "to",
          "type": "address"
        },
        {
          "indexed": true,
          "internalType": "uint256",
          "name": "tokenId",
          "type": "uint256"
        }
      ],
      "name": "Transfer",
      "type": "event"
    },
    {
      "inputs": [
        {
          "internalType": "address",
          "name": "to",
          "type": "address"
        },
        {
          "internalType": "uint256",
          "name": "tokenId",
          "type": "uint256"
        }
      ],
      "name": "approve",
      "outputs": [],
      "stateMutability": "nonpayable",
      "type": "function"
    },
    {
      "inputs": [
        {
          "internalType": "address",
          "name": "owner",
          "type": "address"
        }
      ],
      "name": "balanceOf",
      "outputs": [
        {
          "internalType": "uint256",
          "name": "",
          "type": "uint256"
        }
      ],
      "stateMutability": "view",
      "type": "function"
    },
    {
      "inputs": [
        {
          "internalType": "uint256",
          "name": "tokenId",
          "type": "uint256"
        }
      ],
      "name": "burn",
      "outputs": [],
      "stateMutability": "nonpayable",
      "type": "function"
    },
    {
      "inputs": [
        {
          "internalType": "string",
          "name": "",
          "type": "string"
        }
      ],
      "name": "caskIdToTokenId",
      "outputs": [
        {
          "internalType": "uint256",
          "name": "",
          "type": "uint256"
        }
      ],
      "stateMutability": "view",
      "type": "function"
    },
    {
      "inputs": [
        {
          "internalType": "uint256",
          "name": "",
          "type": "uint256"
        }
      ],
      "name": "caskMetadata",
      "outputs": [
        {
          "internalType": "string",
          "name": "caskId",
          "type": "string"
        },
        {
          "internalType": "address",
          "name": "distillery",
          "type": "address"
        },
        {
          "internalType": "string",
          "name": "spiritName",
          "type": "string"
        },
        {
          "internalType": "string",
          "name": "caskNumber",
          "type": "string"
        },
        {
          "internalType": "uint256",
          "name": "volumeLiters",
          "type": "uint256"
        },
        {
          "internalType": "uint256",
          "name": "alcoholPercentage",
          "type": "uint256"
        },
        {
          "internalType": "uint256",
          "name": "distillationDate",
          "type": "uint256"
        },
        {
          "internalType": "uint256",
          "name": "mintedAt",
          "type": "uint256"
        },
        {
          "internalType": "uint8",
          "name": "ageYears",
          "type": "uint8"
        },
        {
          "internalType": "uint8",
          "name": "rarityTier",
          "type": "uint8"
        },
        {
          "internalType": "string",
          "name": "caskType",
          "type": "string"
        },
        {
          "internalType": "string",
          "name": "specialFinish",
          "type": "string"
        },
        {
          "internalType": "string",
          "name": "region",
          "type": "string"
        },
        {
          "internalType": "bool",
          "name": "isSingleBarrel",
          "type": "bool"
        },
        {
          "internalType": "bool",
          "name": "exists",
          "type": "bool"
        }
      ],
      "stateMutability": "view",
      "type": "function"
    },
    {
      "inputs": [
        {
          "internalType": "uint256",
          "name": "tokenId",
          "type": "uint256"
        }
      ],
      "name": "getApproved",
      "outputs": [
        {
          "internalType": "address",
          "name": "",
          "type": "address"
        }
      ],
      "stateMutability": "view",
      "type": "function"
    },
    {
      "inputs": [
        {
          "internalType": "uint256",
          "name": "tokenId",
          "type": "uint256"
        }
      ],
      "name": "getCaskMetadata",
      "outputs": [
        {
          "components": [
            {
              "internalType": "string",
              "name": "caskId",
              "type": "string"
            },
            {
              "internalType": "address",
              "name": "distillery",
              "type": "address"
            },
            {
              "internalType": "string",
              "name": "spiritName",
              "type": "string"
            },
            {
              "internalType": "string",
              "name": "caskNumber",
              "type": "string"
            },
            {
              "internalType": "uint256",
              "name": "volumeLiters",
              "type": "uint256"
            },
            {
              "internalType": "uint256",
              "name": "alcoholPercentage",
              "type": "uint256"
            },
            {
              "internalType": "uint256",
              "name": "distillationDate",
              "type": "uint256"
            },
            {
              "internalType": "uint256",
              "name": "mintedAt",
              "type": "uint256"
            },
            {
              "internalType": "uint8",
              "name": "ageYears",
              "type": "uint8"
            },
            {
              "internalType": "uint8",
              "name": "rarityTier",
              "type": "uint8"
            },
            {
              "internalType": "string",
              "name": "caskType",
              "type": "string"
            },
            {
              "internalType": "string",
              "name": "specialFinish",
              "type": "string"
            },
            {
              "internalType": "string",
              "name": "region",
              "type": "string"
            },
            {
              "internalType": "bool",
              "name": "isSingleBarrel",
              "type": "bool"
            },
            {
              "internalType": "bool",
              "name": "exists",
              "type": "bool"
            }
          ],
          "internalType": "struct CaskNFT.CaskMetadata",
          "name": "",
          "type": "tuple"
        }
      ],
      "stateMutability": "view",
      "type": "function"
    },
    {
      "inputs": [
        {
          "internalType": "uint256",
          "name": "tokenId",
          "type": "uint256"
        }
      ],
      "name": "getDistillery",
      "outputs": [
        {
          "internalType": "address",
          "name": "",
          "type": "address"
        }
      ],
      "stateMutability": "view",
      "type": "function"
    },
    {
      "inputs": [
        {
          "internalType": "string",
          "name": "caskId",
          "type": "string"
        }
      ],
      "name": "getTokenIdByCaskId",
      "outputs": [
        {
          "internalType": "uint256",
          "name": "",
          "type": "uint256"
        }
      ],
      "stateMutability": "view",
      "type": "function"
    },
    {
      "inputs": [
        {
          "internalType": "address",
          "name": "owner",
          "type": "address"
        },
        {
          "internalType": "address",
          "name": "operator",
          "type": "address"
        }
      ],
      "name": "isApprovedForAll",
      "outputs": [
        {
          "internalType": "bool",
          "name": "",
          "type": "bool"
        }
      ],
      "stateMutability": "view",
      "type": "function"
    },
    {
      "inputs": [
        {
          "internalType": "address",
          "name": "to",
          "type": "address"
        },
        {
          "internalType": "string",
          "name": "caskId",
          "type": "string"
        },
        {
          "internalType": "address",
          "name": "distillery",
          "type": "address"
        },
        {
          "internalType": "string",
          "name": "spiritName",
          "type": "string"
        },
        {
          "internalType": "string",
          "name": "caskNumber",
          "type": "string"
        },
        {
          "internalType": "uint256",
          "name": "volumeLiters",
          "type": "uint256"
        },
        {
          "internalType": "uint256",
          "name": "alcoholPercentage",
          "type": "uint256"
        },
        {
          "internalType": "uint256",
          "name": "distillationDate",
          "type": "uint256"
        },
        {
          "internalType": "uint8",
          "name": "ageYears",
          "type": "uint8"
        },
        {
          "internalType": "uint8",
          "name": "rarityTier",
          "type": "uint8"
        },
        {
          "internalType": "string",
          "name": "caskType",
          "type": "string"
        },
        {
          "internalType": "string",
          "name": "specialFinish",
          "type": "string"
        },
        {
          "internalType": "string",
          "name": "region",
          "type": "string"
        },
        {
          "internalType": "bool",
          "name": "isSingleBarrel",
          "type": "bool"
        },
        {
          "internalType": "string",
          "name": "tokenURI",
          "type": "string"
        }
      ],
      "name": "mintCask",
      "outputs": [
        {
          "internalType": "uint256",
          "name": "",
          "type": "uint256"
        }
      ],
      "stateMutability": "nonpayable",
      "type": "function"
    },
    {
      "inputs": [],
      "name": "name",
      "outputs": [
        {
          "internalType": "string",
          "name": "",
          "type": "string"
        }
      ],
      "stateMutability": "view",
      "type": "function"
    },
    {
      "inputs": [],
      "name": "owner",
      "outputs": [
        {
          "internalType": "address",
          "name": "",
          "type": "address"
        }
      ],
      "stateMutability": "view",
      "type": "function"
    },
    {
      "inputs": [
        {
          "internalType": "uint256",
          "name": "tokenId",
          "type": "uint256"
        }
      ],
      "name": "ownerOf",
      "outputs": [
        {
          "internalType": "address",
          "name": "",
          "type": "address"
        }
      ],
      "stateMutability": "view",
      "type": "function"
    },
    {
      "inputs": [],
      "name": "renounceOwnership",
      "outputs": [],
      "stateMutability": "nonpayable",
      "type": "function"
    },
    {
      "inputs": [
        {
          "internalType": "address",
          "name": "from",
          "type": "address"
        },
        {
          "internalType": "address",
          "name": "to",
          "type": "address"
        },
        {
          "internalType": "uint256",
          "name": "tokenId",
          "type": "uint256"
        }
      ],
      "name": "safeTransferFrom",
      "outputs": [],
      "stateMutability": "nonpayable",
      "type": "function"
    },
    {
      "inputs": [
        {
          "internalType": "address",
          "name": "from",
          "type": "address"
        },
        {
          "internalType": "address",
          "name": "to",
          "type": "address"
        },
        {
          "internalType": "uint256",
          "name": "tokenId",
          "type": "uint256"
        },
        {
          "internalType": "bytes",
          "name": "data",
          "type": "bytes"
        }
      ],
      "name": "safeTransferFrom",
      "outputs": [],
      "stateMutability": "nonpayable",
      "type": "function"
    },
    {
      "inputs": [
        {
          "internalType": "address",
          "name": "from",
          "type": "address"
        },
        {
          "internalType": "address",
          "name": "to",
          "type": "address"
        },
        {
          "internalType": "uint256",
          "name": "tokenId",
          "type": "uint256"
        },
        {
          "internalType": "uint256",
          "name": "price",
          "type": "uint256"
        }
      ],
      "name": "safeTransferFromWithPrice",
      "outputs": [],
      "stateMutability": "nonpayable",
      "type": "function"
    },
    {
      "inputs": [
        {
          "internalType": "address",
          "name": "operator",
          "type": "address"
        },
        {
          "internalType": "bool",
          "name": "approved",
          "type": "bool"
        }
      ],
      "name": "setApprovalForAll",
      "outputs": [],
      "stateMutability": "nonpayable",
      "type": "function"
    },
    {
      "inputs": [
        {
          "internalType": "bytes4",
          "name": "interfaceId",
          "type": "bytes4"
        }
      ],
      "name": "supportsInterface",
      "outputs": [
        {
          "internalType": "bool",
          "name": "",
          "type": "bool"
        }
      ],
      "stateMutability": "view",
      "type": "function"
    },
    {
      "inputs": [],
      "name": "symbol",
      "outputs": [
        {
          "internalType": "string",
          "name": "",
          "type": "string"
        }
      ],
      "stateMutability": "view",
      "type": "function"
    },
    {
      "inputs": [
        {
          "internalType": "uint256",
          "name": "",
          "type": "uint256"
        }
      ],
      "name": "tokenIdToCaskId",
      "outputs": [
        {
          "internalType": "string",
          "name": "",
          "type": "string"
        }
      ],
      "stateMutability": "view",
      "type": "function"
    },
    {
      "inputs": [
        {
          "internalType": "uint256",
          "name": "",
          "type": "uint256"
        }
      ],
      "name": "tokenIdToDistillery",
      "outputs": [
        {
          "internalType": "address",
          "name": "",
          "type": "address"
        }
      ],
      "stateMutability": "view",
      "type": "function"
    },
    {
      "inputs": [
        {
          "internalType": "uint256",
          "name": "tokenId",
          "type": "uint256"
        }
      ],
      "name": "tokenURI",
      "outputs": [
        {
          "internalType": "string",
          "name": "",
          "type": "string"
        }
      ],
      "stateMutability": "view",
      "type": "function"
    },
    {
      "inputs": [
        {
          "internalType": "address",
          "name": "from",
          "type": "address"
        },
        {
          "internalType": "address",
          "name": "to",
          "type": "address"
        },
        {
          "internalType": "uint256",
          "name": "tokenId",
          "type": "uint256"
        }
      ],
      "name": "transferFrom",
      "outputs": [],
      "stateMutability": "nonpayable",
      "type": "function"
    },
    {
      "inputs": [
        {
          "internalType": "address",
          "name": "newOwner",
          "type": "address"
        }
      ],
      "name": "transferOwnership",
      "outputs": [],
      "stateMutability": "nonpayable",
      "type": "function"
    }
  ],
  "bytecode": "0x60806040523461037457604080519081016001600160401b0381118282101761028a576040908152601082526f416e67656c205368617265204361736b60801b602083015280519081016001600160401b0381118282101761028a57604052600681526541534341534b60d01b602082015281516001600160401b03811161028a575f54600181811c9116801561036a575b602082101461026c57601f8111610308575b50602092601f82116001146102a957928192935f9261029e575b50508160011b915f199060031b1c1916175f555b80516001600160401b03811161028a57600154600181811c91168015610280575b602082101461026c57601f8111610209575b50602091601f82116001146101a9579181925f9261019e575b50508160011b915f199060031b1c1916176001555b331561018b5760078054336001600160a01b03198216811790925560405191906001600160a01b03167f8be0079c531659141344cd1fd0a4f28419497f9722a3daafe3b4186f6b6457e05f80a36126e190816103798239f35b631e4fbdf760e01b5f525f60045260245ffd5b015190505f8061011d565b601f1982169260015f52805f20915f5b8581106101f1575083600195106101d9575b505050811b01600155610132565b01515f1960f88460031b161c191690555f80806101cb565b919260206001819286850151815501940192016101b9565b60015f527fb10e2d527612073b26eecdfd717e6a320cf44b4afac2b0732d9fcbe2b7fa0cf6601f830160051c81019160208410610262575b601f0160051c01905b8181106102575750610104565b5f815560010161024a565b9091508190610241565b634e487b7160e01b5f52602260045260245ffd5b90607f16906100f2565b634e487b7160e01b5f52604160045260245ffd5b015190505f806100bd565b601f198216935f8052805f20915f5b8681106102f057508360019596106102d8575b505050811b015f556100d1565b01515f1960f88460031b161c191690555f80806102cb565b919260206001819286850151815501940192016102b8565b5f80527f290decd9548b62a8d60345a988386fc84ba6bc95484008f6362f93160ef3e563601f830160051c81019160208410610360575b601f0160051c01905b81811061035557506100a3565b5f8155600101610348565b909150819061033f565b90607f1690610091565b5f80fdfe610100806040526004361015610013575f80fd5b5f3560e01c90816301ffc9a714611eea5750806306fdde0314611e48578063081812fc14611e0c578063095ea7b314611d225780630ace15b014611c675780630c7e6129146109d457806323b872dd14611c505780633d37d3fe14611c2657806342842e0e14611c0f57806342966c6814611bf2578063522ee9ae14610a875780636352211e14610a5757806370a0823114610a0657806370e67f4e146109d4578063715018a61461097957806372d9154a1461090a5780638801dfd1146107b05780638da5cb5b1461078857806395d89b41146106be578063a22cb46514610601578063a925ac06146105ac578063b88d4fde1461053f578063c87b56dd14610508578063e985e9c5146104b1578063f2fde38b1461042b5763fd9127921461013b575f80fd5b34610427576020366003190112610427576004355f6101c060405161015f81611fbf565b60608152826020820152606060408201526060808201528260808201528260a08201528260c08201528260e08201528261010082015282610120820152606061014082015260606101608201526060610180820152826101a08201520152805f52600d60205260ff600c60405f20015460081c16156103e2575f52600d60205260405f20604051906101f082611fbf565b6101f9816120dd565b825260018101546001600160a01b0316602083019081529161021d600283016120dd565b6040820190815291610231600382016120dd565b906060830191825260048101546080840190815260058201549060a08501918252600683015460c08601908152600784015460e0870190815260088501549061010088019060ff8316825261012089019260081c60ff16835260098701610297906120dd565b6101408a01908152936102ac600a89016120dd565b6101608b01908152966102c1600b8a016120dd565b986101808c01998a52600c0154996101a08c019b60ff8c1615158d526101c081019b60081c60ff1615158c526040519e8f9e8f926020845251602084016101e09052610200840161031191611f6f565b91516001600160a01b0316604084015251828203601f190160609093019290925261033b91611f6f565b90518d8203601f190160808f01526103539190611f6f565b965160a08d01525160c08c01525160e08b0152516101008a01525160ff166101208901525160ff166101408801525190601f198782030161016088015261039991611f6f565b9051858203601f19016101808701526103b29190611f6f565b9051848203601f19016101a08601526103cb9190611f6f565b915115156101c08401525115156101e08301520390f35b60405162461bcd60e51b815260206004820152601d60248201527f4361736b4e46543a20546f6b656e20646f6573206e6f742065786973740000006044820152606490fd5b5f80fd5b3461042757602036600319011261042757610444611f93565b61044c61249e565b6001600160a01b0316801561049e57600780546001600160a01b0319811683179091556001600160a01b03167f8be0079c531659141344cd1fd0a4f28419497f9722a3daafe3b4186f6b6457e05f80a3005b631e4fbdf760e01b5f525f60045260245ffd5b34610427576040366003190112610427576104ca611f93565b6104d2611fa9565b9060018060a01b03165f52600560205260405f209060018060a01b03165f52602052602060ff60405f2054166040519015158152f35b346104275760203660031901126104275761053b6105276004356125fb565b604051918291602083526020830190611f6f565b0390f35b3461042757608036600319011261042757610558611f93565b610560611fa9565b90604435606435926001600160401b0384116104275736602385011215610427576105986105aa943690602481600401359101612017565b926105a483838361217d565b336124c5565b005b34610427576020366003190112610427576004356001600160401b038111610427576020806105e08193369060040161204d565b604051928184925191829101835e8101600981520301902054604051908152f35b346104275760403660031901126104275761061a611f93565b60243590811515908183036104275733156106ab576001600160a01b03169182156106985761066a90335f52600560205260405f20845f5260205260405f209060ff801983541691151516179055565b6040519081527f17307eab39ab6107e8899845ad3d59bd9653f200f220920489ca2b5937696c3160203392a3005b82630b61174360e31b5f5260045260245ffd5b63a9fbf51f60e01b5f525f60045260245ffd5b34610427575f366003190112610427576040515f6001546106de816120a5565b80845290600181169081156107645750600114610706575b61053b8361052781850382611fdb565b60015f9081527fb10e2d527612073b26eecdfd717e6a320cf44b4afac2b0732d9fcbe2b7fa0cf6939250905b80821061074a575090915081016020016105276106f6565b919260018160209254838588010152019101909291610732565b60ff191660208086019190915291151560051b8401909101915061052790506106f6565b34610427575f366003190112610427576007546040516001600160a01b039091168152602090f35b34610427576020366003190112610427576004355f52600d60205260405f206107d8816120dd565b60018201546001600160a01b0316916107f3600282016120dd565b90610800600382016120dd565b60048201546005830154906006840154600785015460088601549160098701610828906120dd565b94610835600a89016120dd565b96610842600b8a016120dd565b98600c015499604051809d819d6101e083526101e0830161086291611f6f565b91602001528c808203906040015261087991611f6f565b8b810360608d015261088a91611f6f565b9460808b015260a08a015260c089015260e088015260ff811661010088015260081c60ff166101208701528581036101408701526108c791611f6f565b8481036101608601526108d991611f6f565b8381036101808501526108eb91611f6f565b9060ff811615156101a084015260081c60ff1615156101c08301520390f35b3461042757608036600319011261042757610923611f93565b61092b611fa9565b604435610939818385612318565b60405160643581526001600160a01b0392831693909216917f994f87e1bb8630f2035b65689cff3f847e6e7d304c91be4e7161fb17edb8befe90602090a4005b34610427575f3660031901126104275761099161249e565b600780546001600160a01b031981169091555f906001600160a01b03167f8be0079c531659141344cd1fd0a4f28419497f9722a3daafe3b4186f6b6457e08280a3005b34610427576020366003190112610427576004355f52600c602052602060018060a01b0360405f205416604051908152f35b34610427576020366003190112610427576001600160a01b03610a27611f93565b168015610a44575f526003602052602060405f2054604051908152f35b6322718ad960e21b5f525f60045260245ffd5b34610427576020366003190112610427576020610a7560043561233b565b6040516001600160a01b039091168152f35b34610427576101e036600319011261042757610aa1611f93565b6024356001600160401b03811161042757610ac090369060040161204d565b60443560a08190526001600160a01b0381169003610427576064356001600160401b03811161042757610af790369060040161204d565b6084356001600160401b03811161042757610b1690369060040161204d565b906101043560ff811681036104275761012435608081905260ff8116900361042757610144356001600160401b03811161042757610b5890369060040161204d565b610164356001600160401b03811161042757610b7890369060040161204d565b610184356001600160401b03811161042757610b9890369060040161204d565b906101a435928315158403610427576101c4356001600160401b03811161042757610bc790369060040161204d565b610bcf61249e565b885115611bae5760ff604051602081818d805191829101835e8101600a8152030190205416611b69576001600160a01b038a1615611b185760a0516001600160a01b031615611ac757600160ff60805116101580611ab7575b15611a725760085460c052600160c051018060c05111611a5e57600855602060e081905260405190610c5a9082611fdb565b5f80825260c051815260e0516002905260409020546001600160a01b03168015159081611a22575b6001600160a01b038d166119fd575b60c0515f52600260e0515260405f208d60018060a01b03166001600160601b0360a01b82541617905560c0518d60018060a01b0316827fddf252ad1be2c89b69c2b068fc378daa952ba7f163c4a11628f55a4df523b3ef5f80a4506119ea578a3b6118b1575b5060c0515f52600660e0515260405f20908051906001600160401b038211611323578190610d2584546120a5565b601f8111611862575b5060e05190601f83116001146117f8575f926117ed575b50508160011b915f199060031b1c19161790555b7ff8e1a15aba9398e019f0b49df1a4fde98ee17ae345cb5f6b5e2c27f5033e8ce760405160c051815260e05190a160405188518060208b01835e8101600a81528160e0519103019020600160ff1982541617905560405188518060208b01835e8101906009825260c051918160e05191030190205560c0515f52600b60e0515260405f2088516001600160401b03811161132357610df782546120a5565b601f81116117a6575b508060e051601f821160011461173d575f91611732575b508160011b915f199060031b1c19161790555b60c0515f52600c60e0515260405f2060018060a01b0360a051166001600160601b0360a01b82541617905560ff60405195610e6487611fbf565b89875260018060a01b0360a0511660e05188015287604088015288606088015260a435608088015260c43560a088015260e43560c08801524260e08801521661010086015260ff6080511661012086015261014085015261016084015261018083015215156101a082015260016101c082015260c0515f52600d60e0515260405f2081518051906001600160401b038211611323578190610f0584546120a5565b601f81116116e3575b5060e05190601f8311600114611679575f9261166e575b50508160011b915f199060031b1c19161781555b60e0518201516001820180546001600160a01b0319166001600160a01b039290921691909117905560408201518051906001600160401b038211611323578190610f8660028501546120a5565b601f811161161c575b5060e05190601f83116001146115ac575f926115a1575b50508160011b915f199060031b1c19161760028201555b60608201518051906001600160401b038211611323578190610fe260038501546120a5565b601f811161154f575b5060e05190601f83116001146114df575f926114d4575b50508160011b915f199060031b1c19161760038201555b6080820151600482015560a0820151600582015560c0820151600682015560e082015160078201556008810160ff6101008401511681549061ff0061012086015160081b169161ffff1916171790556101408201518051906001600160401b03821161132357819061108e60098501546120a5565b601f8111611482575b5060e05190601f8311600114611412575f92611407575b50508160011b915f199060031b1c19161760098201555b6101608201518051906001600160401b0382116113235781906110eb600a8501546120a5565b601f81116113b2575b5060e05190601f8311600114611342575f92611337575b50508160011b915f199060031b1c191617600a8201555b6101808201518051906001600160401b03821161132357611146600b8401546120a5565b601f81116112d9575b5060e05190601f831160011461125c576111f8969593836111ea96946101c094600c945f92611251575b50508160011b915f199060031b1c191617600b8201555b01916111af6101a08201511515849060ff801983541691151516179055565b0151151561ff0082549160081b169061ff0019161790556111db60405195608087526080870190611f6f565b9085820360e051870152611f6f565b908382036040850152611f6f565b60805160ff16606083015260a05160c0516001600160a01b03948516949091169290917fe68012613b0fabe76997e7f6d173893963290ac056129b2faddd398f45dcfdb5919081900390a460405160c051815260e05190f35b015190508c80611179565b90600b84015f5260e0515f20915f5b601f19851681106112c05750936001846101c094600c946111f89b9a986111ea9a98601f198116106112a8575b505050811b01600b820155611190565b01515f1960f88460031b161c191690558c8080611298565b81830151845560e051600190940193928301920161126b565b600b84015f5260e0515f20601f840160051c81019160e0518510611319575b601f0160051c01905b81811061130e575061114f565b5f8155600101611301565b90915081906112f8565b634e487b7160e01b5f52604160045260245ffd5b01519050888061110b565b9250600a84015f5260e0515f20905f935b601f1984168510611396576001945083601f1981161061137e575b505050811b01600a820155611122565b01515f1960f88460031b161c1916905588808061136e565b81810151835560e0519485019460019093019290910190611353565b909150600a84015f5260e0515f20601f840160051c81019160e05185106113fd575b90601f859493920160051c01905b8181106113ef57506110f4565b5f81558493506001016113e2565b90915081906113d4565b0151905088806110ae565b9250600984015f5260e0515f20905f935b601f1984168510611466576001945083601f1981161061144e575b505050811b0160098201556110c5565b01515f1960f88460031b161c1916905588808061143e565b81810151835560e0519485019460019093019290910190611423565b909150600984015f5260e0515f20601f840160051c810160e05185106114cd575b90849392915b601f830160051c820181106114bf575050611097565b5f81558594506001016114a9565b50806114a3565b015190508880611002565b9250600384015f5260e0515f20905f935b601f1984168510611533576001945083601f1981161061151b575b505050811b016003820155611019565b01515f1960f88460031b161c1916905588808061150b565b81810151835560e05194850194600190930192909101906114f0565b909150600384015f5260e0515f20601f840160051c810160e051851061159a575b90849392915b601f830160051c8201811061158c575050610feb565b5f8155859450600101611576565b5080611570565b015190508880610fa6565b9250600284015f5260e0515f20905f935b601f1984168510611600576001945083601f198116106115e8575b505050811b016002820155610fbd565b01515f1960f88460031b161c191690558880806115d8565b81810151835560e05194850194600190930192909101906115bd565b909150600284015f5260e0515f20601f840160051c810160e0518510611667575b90849392915b601f830160051c82018110611659575050610f8f565b5f8155859450600101611643565b508061163d565b015190508880610f25565b9250835f5260e0515f20905f935b601f19841685106116c7576001945083601f198116106116af575b505050811b018155610f39565b01515f1960f88460031b161c191690558880806116a2565b81810151835560e0519485019460019093019290910190611687565b909150835f5260e0515f20601f840160051c810160e051851061172b575b90849392915b601f830160051c8201811061171d575050610f0e565b5f8155859450600101611707565b5080611701565b90508a01518c610e17565b8b9250835f5260e0515f20905f5b601f198416811061178b57506001935082601f19811610611773575b5050811b019055610e2a565b8c01515f1960f88460031b161c191690558c80611767565b93810151825560e0518d94600190930192918101910161174b565b825f5260e0515f20601f830160051c81019160e05184106117e3575b601f0160051c01905b8181106117d85750610e00565b5f81556001016117cb565b90915081906117c2565b015190508c80610d45565b9250835f5260e0515f20905f935b601f1984168510611846576001945083601f1981161061182e575b505050811b019055610d59565b01515f1960f88460031b161c191690558c8080611821565b81810151835560e0519485019460019093019290910190611806565b909150835f5260e0515f20601f840160051c810160e05185106118aa575b90849392915b601f830160051c8201811061189c575050610d2e565b5f8155859450600101611886565b5080611880565b60405190630a85bd0160e11b82523360048301525f602483015260c051604483015260806064830152818c815f816118f060e051966084830190611f6f565b03926001600160a01b03165af15f91816119a3575b50611968578a3d15611961573d61191b81611ffc565b906119296040519283611fdb565b8152805f3d9160e051013e5b8051908161195b57633250574960e11b5f9081526001600160a01b038416600452602490fd5b60e05101fd5b6060611935565b6001600160e01b03191663757a42ff60e11b01611985578a610cf7565b633250574960e11b5f9081526001600160a01b038b16600452602490fd5b90915060e0513d60e051116119e3575b6119bd8183611fdb565b8160e051918101031261042757516001600160e01b03198116810361042757908c611905565b503d6119b3565b6339e3563760e11b5f525f60045260245ffd5b6001600160a01b038d165f90815260e051600390526040902080546001019055610c91565b611a4560c0515f52600460205260405f206001600160601b0360a01b8154169055565b805f52600360e0515260405f205f198154019055610c82565b634e487b7160e01b5f52601160045260245ffd5b60405162461bcd60e51b815260206004820152601c60248201527f4361736b4e46543a20496e76616c6964207261726974792074696572000000006044820152606490fd5b50600560ff608051161115610c28565b60405162461bcd60e51b815260206004820152602360248201527f4361736b4e46543a20496e76616c69642064697374696c6c657279206164647260448201526265737360e81b6064820152608490fd5b60405162461bcd60e51b8152602060048201526024808201527f4361736b4e46543a2043616e6e6f74206d696e7420746f207a65726f206164646044820152637265737360e01b6064820152608490fd5b60405162461bcd60e51b815260206004820152601c60248201527f4361736b4e46543a204361736b20616c7265616479206d696e746564000000006044820152606490fd5b606460405162461bcd60e51b815260206004820152602060248201527f4361736b4e46543a204361736b2049442063616e6e6f7420626520656d7074796044820152fd5b34610427576020366003190112610427576105aa3360043561236f565b34610427576105aa611c203661206b565b91612318565b34610427576020366003190112610427576004355f52600b60205261053b61052760405f206120dd565b34610427576105aa611c613661206b565b9161217d565b34610427576020366003190112610427576004356001600160401b03811161042757611c9790369060040161204d565b60405160ff825191602081818601948086835e8101600a815203019020541615611cdd5760208092604051928391518091835e8101600981520301902054604051908152f35b60405162461bcd60e51b815260206004820152601860248201527f4361736b4e46543a204361736b206e6f74206d696e74656400000000000000006044820152606490fd5b3461042757604036600319011261042757611d3b611f93565b602435611d478161233b565b33151580611df9575b80611dcc575b611db95781906001600160a01b0384811691167f8c5be1e5ebec7d5bd14f71427d1e84f3dd0314c0f7b2291e5b200ac8c7c3b9255f80a45f90815260046020526040902080546001600160a01b0319166001600160a01b03909216919091179055005b63a9fbf51f60e01b5f523360045260245ffd5b506001600160a01b0381165f90815260056020908152604080832033845290915290205460ff1615611d56565b506001600160a01b038116331415611d50565b3461042757602036600319011261042757600435611e298161233b565b505f526004602052602060018060a01b0360405f205416604051908152f35b34610427575f366003190112610427576040515f5f54611e67816120a5565b80845290600181169081156107645750600114611e8e5761053b8361052781850382611fdb565b5f8080527f290decd9548b62a8d60345a988386fc84ba6bc95484008f6362f93160ef3e563939250905b808210611ed0575090915081016020016105276106f6565b919260018160209254838588010152019101909291611eb8565b34610427576020366003190112610427576004359063ffffffff60e01b821680920361042757602091632483248360e11b8114908115611f2c575b5015158152f35b6380ac58cd60e01b811491508115611f5e575b8115611f4d575b5083611f25565b6301ffc9a760e01b14905083611f46565b635b5e139f60e01b81149150611f3f565b805180835260209291819084018484015e5f828201840152601f01601f1916010190565b600435906001600160a01b038216820361042757565b602435906001600160a01b038216820361042757565b6101e081019081106001600160401b0382111761132357604052565b90601f801991011681019081106001600160401b0382111761132357604052565b6001600160401b03811161132357601f01601f191660200190565b92919261202382611ffc565b916120316040519384611fdb565b829481845281830111610427578281602093845f960137010152565b9080601f830112156104275781602061206893359101612017565b90565b6060906003190112610427576004356001600160a01b038116810361042757906024356001600160a01b0381168103610427579060443590565b90600182811c921680156120d3575b60208310146120bf57565b634e487b7160e01b5f52602260045260245ffd5b91607f16916120b4565b9060405191825f8254926120f0846120a5565b808452936001811690811561215b5750600114612117575b5061211592500383611fdb565b565b90505f9291925260205f20905f915b81831061213f575050906020612115928201015f612108565b6020919350806001915483858901015201910190918492612126565b90506020925061211594915060ff191682840152151560051b8201015f612108565b6001600160a01b0390911691908215612305575f828152600260205260409020546001600160a01b031692829033151580612270575b508461223d575b805f52600360205260405f2060018154019055815f52600260205260405f20816001600160601b0360a01b825416179055847fddf252ad1be2c89b69c2b068fc378daa952ba7f163c4a11628f55a4df523b3ef5f80a46001600160a01b031680830361222557505050565b6364283d7b60e01b5f5260045260245260445260645ffd5b5f82815260046020526040902080546001600160a01b0319169055845f52600360205260405f205f1981540190556121ba565b909150806122b4575b156122865782905f6121b3565b828461229e57637e27328960e01b5f5260045260245ffd5b63177e802f60e01b5f523360045260245260445ffd5b5033841480156122e3575b8061227957505f838152600460205260409020546001600160a01b03163314612279565b505f84815260056020908152604080832033845290915290205460ff166122bf565b633250574960e11b5f525f60045260245ffd5b9091612115926040519261232d602085611fdb565b5f84526105a483838361217d565b5f818152600260205260409020546001600160a01b031690811561235d575090565b637e27328960e01b5f5260045260245ffd5b5f818152600260205260409020546001600160a01b03908116921680151580612411575b5050816123de575b5f81815260026020526040812080546001600160a01b0319169055827fddf252ad1be2c89b69c2b068fc378daa952ba7f163c4a11628f55a4df523b3ef8280a490565b5f81815260046020526040902080546001600160a01b0319169055815f52600360205260405f205f19815401905561239b565b8061244f575b156124225780612393565b8261243a5750637e27328960e01b5f5260045260245ffd5b63177e802f60e01b5f5260045260245260445ffd5b50808314801561247e575b8061241757505f828152600460205260409020546001600160a01b03168114612417565b50825f52600560205260405f20815f5260205260ff60405f20541661245a565b6007546001600160a01b031633036124b257565b63118cdaa760e01b5f523360045260245ffd5b823b6124d3575b5050505050565b604051630a85bd0160e11b81526001600160a01b03918216600482015291811660248301526044820193909352608060648201529116916020908290819061251f906084830190611f6f565b03815f865af15f91816125b6575b5061258257503d1561257b573d61254381611ffc565b906125516040519283611fdb565b81523d5f602083013e5b805190816125765782633250574960e11b5f5260045260245ffd5b602001fd5b606061255b565b6001600160e01b03191663757a42ff60e11b016125a457505f808080806124cc565b633250574960e11b5f5260045260245ffd5b9091506020813d6020116125f3575b816125d260209383611fdb565b8101031261042757516001600160e01b03198116810361042757905f61252d565b3d91506125c5565b6126048161233b565b506020906040516126158382611fdb565b5f8152815f526006835261262b60405f206120dd565b8151156126a45780849151612669575050506126469061233b565b505f6040516126558382611fdb565b526126636040519182611fdb565b5f815290565b612068935081906040519584879551918291018487015e8401908282015f8152815193849201905e01015f815203601f198101835282611fdb565b925050509056fea26469706673582212200cf04106b6450bbc3ec697ca374b3a08897351c1119ef191b91fee4aac646c9464736f6c634300081b0033",
  "linkReferences": {},
  "deployedLinkReferences": {}
}